:020000040800F2
:10000000100D0020F10300084D0400084D04000805
:100010004D0400084D0400084D04000800000000D5
:100020000000000000000000000000004D04000877
:100030004D040008000000004D0400080D0F0008EA
:100040004D0400084D0400084D0400084D0400084C
:100050004D0400084D0400084D0400084D0400083C
:100060004D0400084D0400084D0400084D0400082C
:100070004D0400084D0400084D0400084D0400081C
:100080004D0400084D0400084D0400084D0400080C
:100090004D0400084D0400084D0400084D040008FC
:1000A0004D0400084D0400084D0400084D040008EC
:1000B0004D0400084D0400084D0400084D040008DC
:1000C0004D0400084D0400084D0400084D040008CC
:1000D0004D040008551300084D0400084D040008A5
:1000E0004D0400084D0400084D0400084D040008AC
:1000F0004D0400084D0400084D0400084D0400089C
:100100004D0400084D0400084D0400084D0400088B
:100110004D0400084D0400084D0400084D0400087B
:100120004D0400084D0400084D0400084D0400086B
:100130005FF808F180B582B000AF78600B46FB70C5
:100140001346BB7000BF78684FF4003101F09EF891
:100150000346002BF7D17868012100F0CBFF00BFE8
:100160007868134901F062F80346002BF8D0FA785A
:10017000BB78786811461A4601F03AF8BB78002B34
:1001800008D100BF78680B4901F050F80346002BF6
:10019000F8D00AE0BB78012B07D100BF7868064988
:1001A00001F044F80346002BF8D00837BD4680BD67
:1001B00001000300820007000200030080B582B046
:1001C00000AF78600B46FB70FB787868194600F04A
:1001D000F1FF00BF7868044901F028F80346002BBE
:1001E000F8D00837BD4680BD8400070080B584B0D4
:1001F00000AF78607868012100F0BCFF00BF78682C
:10020000074901F013F80346002BF8D0786800F096
:10021000E1FF0346FB73FB7B18461037BD4680BDEC
:100220004000030080B584B000AF7860786800219A
:1002300000F0A0FF7868012100F07CFF00BF786823
:10024000074900F0F3FF0346002BF8D0786800F070
:10025000C1FF0346FB73FB7B18461037BD4680BDCC
:100260004000030080B582B000AF7860786801215B
:1002700000F060FF0837BD4680BD00BF80B500AF0D
:10028000154A154B1B6843F0010313601249124BCA
:100290005A68124B13404B600F4A0F4B1B6823F0F8
:1002A000847323F4803313600B4A0B4B1B6823F4D5
:1002B00080231360084A084B5B6823F4FE035360F5
:1002C000054B4FF41F029A6000F00CF8044B4FF0FE
:1002D00000629A6080BD00BF001002400000FFF87D
:1002E00000ED00E080B500AF00F002F880BD00BF77
:1002F00080B483B000AF00237B6000233B603A4AA8
:10030000394B1B6843F480331360374B1B6803F48D
:1003100000333B607B6801337B603B68002B03D17B
:100320007B68B3F5A06FF0D12F4B1B6803F400334B
:10033000002B02D001233B6001E000233B603B68BF
:10034000012B4BD1294A294B1B6843F01003136042
:10035000264A264B1B6823F003031360234A234BD2
:100360001B6843F0020313601F4A1F4B5B68536016
:100370001D4A1D4B5B6853601B4A1B4B5B6843F473
:1003800080635360184A184B5B6823F47C135360F6
:10039000154A154B5B6843F4E8135360124A124B3D
:1003A0001B6843F08073136000BF0F4B1B6803F0A2
:1003B0000073002BF9D00C4A0B4B5B6823F003034E
:1003C0005360094A084B5B6843F00203536000BF67
:1003D000054B5B6803F00C03082BF9D10C37BD46C5
:1003E0005DF8047B704700BF00100240002002400F
:1003F00080B582B000AF104B7B60104B3B6007E0D4
:100400003B681A1D3A607A68111D796012681A609B
:100410003B680B4A9342F3D30A480B494FF0000262
:100420008842B8BF40F8042BFADBFFF727FF00F043
:1004300017F90837BD4680BDA86A000800000020F3
:10044000B4080020B40800200C09002080B400AFDC
:10045000FEE700BF80B489B000AF78603960002348
:10046000FB6100233B610023BB610023FB60002391
:100470007B610023BB603B68DB7803F00F03FB610B
:100480003B68DB7803F01003002B05D03B689B78BA
:100490001A46FB691343FB613B681B88DBB2002BE8
:1004A00044D07B681B687B610023BB6138E0BB697B
:1004B000012202FA03F3FB603B681B881A46FB68C3
:1004C00013403B613A69FB689A4226D1BB699B00A5
:1004D000FB60FB680F2202FA03F3BB60BB68DB43DF
:1004E0007A6913407B61FB68FA6902FA03F37A695F
:1004F00013437B613B68DB78282B05D1BB69012264
:100500009A407B685A6108E03B68DB78482B04D14D
:10051000BB6901229A407B681A61BB690133BB61E8
:10052000BB69072BC3D97B687A691A603B681B8853
:10053000FF2B4AD97B685B687B610023BB613EE08F
:10054000BB6908331A4601239340FB603B681B8854
:100550001A46FB6813403B613A69FB689A422BD10B
:10056000BB699B00FB60FB680F2202FA03F3BB60D0
:10057000BB68DB437A6913407B61FB68FA6902FA66
:1005800003F37A6913437B613B68DB78282B07D13F
:10059000BB6908331A46012303FA02F27B685A61E9
:1005A0003B68DB78482B07D1BB6908331A46012327
:1005B00003FA02F27B681A61BB690133BB61BB6954
:1005C000072BBDD97B687A695A602437BD465DF830
:1005D000047B704780B500AF0120012100F0E2F9F3
:1005E0004FF48000012100F0FBF90820012100F008
:1005F000D9F9154B4FF440621A80134B1C22DA7064
:10060000114B03229A7011480F49FFF723FF104B3B
:10061000104A1A600E4B00229A800D4B4BF6FF7267
:10062000DA800B4B00221A81094B00225A81084BB9
:100630004FF480429A810848054900F079FC064849
:10064000012100F037FD80BDEC080020000C0140C6
:10065000F0080020A08601000058004000000000C3
:100660002DE9B04F8CB006AF0023FB820023BB8284
:1006700000237B8200233B820023FB810023BB817C
:1006800000237B8100233B810023FB800023BB8070
:1006900000237B8000233B80FFF7F0FD00F014FC7B
:1006A0004FF4165000F072FE5F48604900F022FEE1
:1006B000FFF790FF00F06EFB5D48D0210022FFF7AE
:1006C00039FD5B483B21FFF779FD5948FFF7CAFD2B
:1006D0005748D0210122FFF72DFD5548FFF786FD31
:1006E0000346FB825248FFF781FD0346BB82504818
:1006F000FFF77CFD03467B824D48FFF777FD0346FD
:100700003B824B48FFF772FD0346FB814848FFF7E9
:100710006DFD0346BB814648FFF768FD0346BB807D
:100720004348FFF77FFD03467B804148FFF79AFD72
:10073000FB8A1B029AB2BB8A13449BB27B817B8AE1
:100740001B029AB23B8A13449BB23B81FB891B027A
:100750009AB2BB8913449BB2FB80BB881B029AB23E
:100760007B8813449BB23B80B7F90A30184600F0EF
:10077000A3FF02460B46104619464FF000022D4BD0
:1007800001F02AF902460B4692469B46B7F908301B
:10079000184600F091FF02460B46104619464FF0EE
:1007A0000002244B01F018F902460B469046994688
:1007B000B7F90630184600F07FFF02460B46104698
:1007C00019464FF000021B4B01F006F902460B469A
:1007D00014461D46B7F90030184600F06DFF02467A
:1007E0000B46104619464FF00002134B01F0F4F887
:1007F00002460B461046194609A3D3E9002300F030
:100800000FFE02460B46CDE90089CDE90245CDE950
:1008100004230A4852465B4601F0C6F94CE700BF84
:10082000A4703D0AD743424000380140F4680008F4
:10083000005800400000D0400040754004690008A6
:1008400080B487B000AF786000237B6100233B61F8
:100850000023FB600023BB604D4B5B6803F00C037F
:100860007B617B69042B07D0082B09D0002B34D186
:100870007B68484A1A6034E07B68464A1A6030E078
:10088000434B5B6803F470133B61414B5B6803F4BB
:100890008033FB603B699B0C02333B61FB68002BA0
:1008A00006D13B693C4A02FB03F27B681A6013E005
:1008B000374B5B6803F40033002B06D03B69364AA4
:1008C00002FB03F27B681A6006E03B69314A02FBD7
:1008D00003F27B681A6004E003E07B682D4A1A602B
:1008E00000BF2B4B5B6803F0F0037B617B691B0946
:1008F0007B612A4A7B6913441B78DBB2BB607B684F
:100900001A68BB68DA407B685A60214B5B6803F465
:10091000E0637B617B691B0A7B61204A7B6913442E
:100920001B78DBB2BB607B685A68BB68DA407B68C7
:100930009A60174B5B6803F460537B617B69DB0A49
:100940007B61164A7B6913441B78DBB2BB607B6812
:100950005A68BB68DA407B68DA600D4B5B6803F469
:1009600040437B617B699B0B7B610D4A7B69134430
:100970001B78DBB2BB607B68DA68BB68B2FBF3F262
:100980007B681A611C37BD465DF8047B704700BF69
:100990000010024000127A0000093D000000002013
:1009A0001000002080B483B000AF78600B46FB706D
:1009B000FB78002B06D00949084B9A697B681343E2
:1009C0008B6106E00549054B9A697B68DB43134060
:1009D0008B610C37BD465DF8047B70470010024008
:1009E00080B483B000AF78600B46FB70FB78002BBF
:1009F00006D00949084BDA697B681343CB6106E0EE
:100A00000549054BDA697B68DB431340CB610C3742
:100A1000BD465DF8047B70470010024080B58CB085
:100A200000AF786039600023FB620023BB620023C3
:100A30007B6200233B620023FB617B68FB617B6878
:100A40001B8A9BB2FB62FA6A4CF6FF731340FB628F
:100A50003B68DB881A46FB6A1343FB62FB6A9AB267
:100A60007B681A827B689B899BB2FB62FA6A4EF6AE
:100A7000F3131340FB623B689A883B681B8913435E
:100A80009AB23B685B8913439BB21A46FB6A1343D5
:100A9000FB62FB6A9AB27B689A817B689B8A9BB2F5
:100AA000FB62FA6A4FF6FF431340FB623B689B8987
:100AB0001A46FB6A1343FB62FB6A9AB27B689A820E
:100AC00007F108031846FFF7BBFEFB692E4A934265
:100AD00002D17B69BB6201E03B69BB627B689B8999
:100AE0009BB29BB21BB2002B0CDABA6A13469B0076
:100AF00013449A001A443B681B685B00B2FBF3F393
:100B00007B620BE0BA6A13469B0013449A001A44B6
:100B10003B681B689B00B2FBF3F37B627B6A1B4A5A
:100B2000A2FB03235B091B01FB62FB6A1B09642216
:100B300002FB03F37A6AD31A3B627B689B899BB200
:100B40009BB21BB2002B0CDA3B6ADB0032330F4A3C
:100B5000A2FB03235B0903F00703FA6A1343FB625A
:100B60000BE03B6A1B013233084AA2FB03235B09FB
:100B700003F00F03FA6A1343FB62FB6A9AB27B68C5
:100B80001A813037BD4680BD003801401F85EB51CA
:100B900080B483B000AF78600B46FB70FB78002B0D
:100BA00008D07B689B899BB243F400539AB27B6860
:100BB0009A8107E07B689B899BB223F400539AB229
:100BC0007B689A810C37BD465DF8047B704700BF97
:100BD00080B487B000AF78600B467B8013467B7093
:100BE00000233B610023FB600023BB6000237B618B
:100BF0007B687B617B88DBB25B09DBB23B617B8816
:100C000003F01F03FB60FB68012202FA03F3BB60E1
:100C10003B69012B03D17B690C337B6109E03B69A4
:100C2000022B03D17B6910337B6102E07B691433B3
:100C30007B617B78002B06D07B697A691168BA6882
:100C40000A431A6006E07B697A691168BA68D24380
:100C50000A401A601C37BD465DF8047B704700BF30
:100C600080B483B000AF78600B467B807B88C3F391
:100C700008039AB27B689A800C37BD465DF8047B06
:100C8000704700BF80B483B000AF78607B689B88FA
:100C90009BB2C3F308039BB218460C37BD465DF800
:100CA000047B704780B485B000AF78600B467B80D2
:100CB0000023FB737B681B889AB27B8813409BB22E
:100CC000002B02D00123FB7301E00023FB73FB7BAD
:100CD00018461437BD465DF8047B704780B487B072
:100CE00000AF78600B467B800023FB6000237B61B4
:100CF0000023BB600023FB747B88DBB25B09DBB2A3
:100D0000BB607B8803F01F037B617B69012202FAD1
:100D100003F37B61BB68012B07D17B689B899BB286
:100D20001A467B6913407B6111E0BB68022B07D137
:100D30007B681B8A9BB21A467B6913407B6106E085
:100D40007B689B8A9BB21A467B6913407B617B88D8
:100D50001B0A9BB2FB60FB68012202FA03F3FB60F3
:100D60007B681B889BB21A46FB681340FB607B695B
:100D7000002B05D0FB68002B02D00123FB7401E09F
:100D80000023FB74FB7C18461C37BD465DF8047BD2
:100D9000704700BF80B500AF0848D0210022FFF7A0
:100DA000C9F906486B21FFF709FA04480021FFF74B
:100DB00005FA0248FFF756FA80BD00BF0058004010
:100DC00080B485B000AF78600B4B1B68002B02D15C
:100DD000094B0A4A1A60084B1B68FB60064B1A68ED
:100DE0007B681344044A1360FB6818461437BD46F9
:100DF0005DF8047B704700BFB40800200C09002098
:100E000080B483B000AF78604FF0FF3318460C37E2
:100E1000BD465DF8047B704780B483B000AF786056
:100E200039603B684FF400525A60002318460C3773
:100E3000BD465DF8047B704780B483B000AF786036
:100E4000012318460C37BD465DF8047B704700BF90
:100E500080B485B000AFF860B9607A6000231846AE
:100E60001437BD465DF8047B704700BF80B485B081
:100E700000AFF860B9607A607B6818461437BD46E9
:100E80005DF8047B704700BF80B586B000AFF860A6
:100E9000B9607A6000237B610AE0BB685A1CBA60C3
:100EA0001B780848194600F03FFA7B6901337B61E3
:100EB0007A697B689A42F0DB7B6818461837BD4632
:100EC00080BD00BF0038014080B500AF7C2001210B
:100ED000FFF768FD0A4BC0221A80094B1022DA7016
:100EE000074B03229A7007480549FFF7B3FA044BF2
:100EF0004FF401521A8004480149FFF7ABFA80BD54
:100F000000090020001001400014014080B400AF2F
:100F1000064B1B68002B04D0044B1B68013B034AA3
:100F20001360BD465DF8047B704700BF04090020D4
:100F300080B58AB000AF786039600023FB8400235D
:100F40007B840423BB84574BFB617B689B88FB84B9
:100F5000FB8C23F03F03FB8407F108031846FFF7DF
:100F60006FFC3B69FB61FB694F4AA2FB03239B0CAF
:100F70007B84FA8C7B8C1343FB847B68FA8C9A808D
:100F80007B681B889BB223F001039AB27B681A80AE
:100F90000023FB843B681B68444A934215D83B6896
:100FA0001B685B00FA69B2FBF3F3BB84BB8C032BB9
:100FB00001D80423BB84FA8CBB8C1343FB847B8C49
:100FC00001339AB27B681A8440E03B68DB884BF6B9
:100FD000FF72934209D13B681A6813465B001344C1
:100FE000FA69B2FBF3F3BB840EE03B681A68134660
:100FF0009B0013449A001344FA69B2FBF3F3BB84D9
:10100000BB8C43F48043BB84BB8CC3F30B03002B2A
:1010100003D1BB8C43F00103BB84BA8CFB8C13431C
:101020009BB26FEA43436FEA5343FB847B8C4FF4DC
:10103000967202FB03F31E4A82FB03129211DB1726
:10104000D31A9BB201339AB27B681A847B68FA8CFC
:101050009A837B681B889BB243F001039AB27B683A
:101060001A807B681B88FB84FB8C23F4816323F04C
:101070000203FB843B689A883B685B8913439AB2FE
:10108000FB8C1343FB847B68FA8C1A803B689A893B
:101090003B681B8913439AB27B681A812837BD4687
:1010A00080BD00BF00127A0083DE1B43A0860100D2
:1010B000D34D621080B483B000AF78600B46FB70F4
:1010C000FB78002B08D07B681B889BB243F00103A0
:1010D0009AB27B681A8007E07B681B889BB223F07A
:1010E00001039AB27B681A800C37BD465DF8047B19
:1010F000704700BF80B483B000AF78600B46FB70D0
:10110000FB78002B08D07B681B889BB243F480736C
:101110009AB27B681A8007E07B681B889BB223F435
:1011200080739AB27B681A800C37BD465DF8047BE9
:10113000704700BF80B483B000AF78600B46FB708F
:10114000FB78002B08D07B681B889BB243F40073AC
:101150009AB27B681A8007E07B681B889BB223F4F5
:1011600000739AB27B681A800C37BD465DF8047B29
:10117000704700BF80B483B000AF78600B46FB704F
:10118000FB78002B08D07B681B889BB243F48063FC
:101190009AB27B681A8007E07B681B889BB223F4B5
:1011A00080639AB27B681A800C37BD465DF8047B79
:1011B000704700BF80B483B000AF78600B46FB700F
:1011C000FB789AB27B681A820C37BD465DF8047BC7
:1011D000704700BF80B483B000AF78607B681B8A23
:1011E0009BB2DBB218460C37BD465DF8047B7047F6
:1011F00080B483B000AF78600B46FB701346BB70C1
:10120000BB78002B04D0FB7843F00103FB7003E0B4
:10121000FB7823F00103FB70FB789AB27B681A829B
:101220000C37BD465DF8047B704700BF80B487B0C3
:1012300000AF7860396000233B610023FB6000232E
:10124000BB600023FB757B689B8A9BB2FB607B685D
:101250001B8B9BB2BB60BB681B04BB60FA68BB689E
:10126000134323F07F433B613A693B681A403B6874
:101270009A4202D10123FB7501E00023FB75FB7D3F
:1012800018461C37BD465DF8047B704780B487B0B4
:1012900000AF786039600023FB7500233B610023B9
:1012A000FB607B68FB603B681B0F3B613B6823F086
:1012B0007F433B603B69002B03D0FB681433FB602A
:1012C00005E03B681B0C3B60FB681833FB60FB6868
:1012D0001A683B681340002B02D00123FB7501E024
:1012E0000023FB75FB7D18461C37BD465DF8047B6B
:1012F000704700BF80B582B000AF786039600BE006
:101300003B681B78DBB29BB27868194600F00CF89A
:101310003B685A1C3A601B783B681B78DBB2002B99
:10132000EED10837BD4680BD80B582B000AF786091
:101330000B467B8000BF78688021FFF7B3FC034633
:10134000002BF8D07B8878681946FFF789FC0837AE
:10135000BD4680BD80B582B000AF0B4840F225513C
:10136000FFF7BCFC0346002B0AD00748FFF78AFCB6
:101370000346FB71FB799BB203481946FFF7D4FF84
:101380000837BD4680BD00BF0038014080B586B03B
:1013900000AF786044F205000121FFF703FB1A4B10
:1013A0004FF400721A80184B1822DA701748164949
:1013B000FFF750F8144B4FF480621A80124B04224E
:1013C000DA7012481049FFF745F87B68BB600023CC
:1013D000BB810023FB8100233B820023BB820C23C3
:1013E0007B8207F108030A481946FFF717FB0848F4
:1013F0000121FFF7CDFB064840F225510122FFF7FE
:10140000E7FB1837BD4680BD0009002000080140F9
:101410000038014081F0004102E000BF83F000434A
:1014200030B54FEA41044FEA430594EA050F08BF7F
:1014300090EA020F1FBF54EA000C55EA020C7FEA43
:10144000645C7FEA655C00F0E2804FEA5454D4EBC0
:101450005555B8BF6D420CDD2C4480EA020281EA8A
:10146000030382EA000083EA010180EA020281EAC2
:101470000303362D88BF30BD11F0004F4FEA013114
:101480004FF4801C4CEA113102D0404261EB410123
:1014900013F0004F4FEA03334CEA133302D05242A9
:1014A00063EB430394EA050F00F0A780A4F1010465
:1014B000D5F1200E0DDB02FA0EFC22FA05F280189F
:1014C00041F1000103FA0EF2801843FA05F3594185
:1014D0000EE0A5F120050EF1200E012A03FA0EFC04
:1014E00028BF4CF0020C43FA05F3C01851EBE3712E
:1014F00001F0004507D54FF0000EDCF1000C7EEB4B
:1015000000006EEB0101B1F5801F1BD3B1F5001F88
:101510000CD349085FEA30004FEA3C0C04F10104A7
:101520004FEA445212F5800F80F09A80BCF1004FD0
:1015300008BF5FEA500C50F1000041EB045141EA52
:10154000050130BD5FEA4C0C404141EB010111F453
:10155000801FA4F10104E9D191F0000F04BF0146FE
:101560000020B1FA81F308BF2033A3F10B03B3F1DC
:1015700020020CDA0C3208DD02F1140CC2F10C026C
:1015800001FA0CF021FA02F10CE002F11402D8BFCA
:10159000C2F1200C01FA02F120FA0CFCDCBF41EA96
:1015A0000C019040E41AA2BF01EB0451294330BD65
:1015B0006FEA04041F3C1CDA0C340EDC04F1140442
:1015C000C4F1200220FA04F001FA02F340EA030019
:1015D00021FA04F345EA030130BDC4F10C04C4F15F
:1015E000200220FA02F001FA04F340EA030029463F
:1015F00030BD21FA04F0294630BD94F0000F83F489
:10160000801306BF81F480110134013D4EE77FEA6B
:10161000645C18BF7FEA655C29D094EA050F08BFB7
:1016200090EA020F05D054EA000C04BF1946104698
:1016300030BD91EA030F1EBF0021002030BD5FEADC
:10164000545C05D14000494128BF41F0004130BD04
:1016500014F580043CBF01F5801130BD01F0004558
:1016600045F0FE4141F470014FF0000030BD7FEACB
:10167000645C1ABF194610467FEA655C1CBF0B46C6
:10168000024650EA013406BF52EA033591EA030FDD
:1016900041F4002130BD00BF90F0000F04BF0021D5
:1016A000704730B54FF4806404F132044FF0000508
:1016B0004FF0000150E700BF90F0000F04BF002181
:1016C000704730B54FF4806404F1320410F00045E7
:1016D00048BF40424FF000013EE700BF42004FEAE2
:1016E000E2014FEA31014FEA02701FBF12F07F435F
:1016F00093F07F4F81F06051704792F0000F14BF5C
:1017000093F07F4F704730B54FF4607401F000459F
:1017100021F0004120E700BF50EA010208BF7047F6
:1017200030B54FF000050AE050EA010208BF7047EB
:1017300030B511F0004502D5404261EB41014FF454
:10174000806404F132045FEA915C3FF4DCAE4FF058
:1017500003025FEADC0C18BF03325FEADC0C18BF3F
:10176000033202EBDC02C2F1200300FA03FC20FA90
:1017700002F001FA03FE40EA0E0021FA02F11444DD
:10178000C1E600BF70B54FF0FF0C4CF4E06C1CEAF2
:1017900011541DBF1CEA135594EA0C0F95EA0C0F67
:1017A00000F0DEF82C4481EA030621EA4C5123EADA
:1017B0004C5350EA013518BF52EA033541F4801109
:1017C00043F4801338D0A0FB02CE4FF00005E1FBBC
:1017D00002E506F00042E0FB03E54FF00006E1FB06
:1017E00003569CF0000F18BF4EF0010EA4F1FF0449
:1017F000B6F5007F64F5407404D25FEA4E0E6D4189
:1018000046EB060642EAC62141EA55514FEAC52099
:1018100040EA5E504FEACE2EB4F1FD0C88BFBCF515
:10182000E06F1ED8BEF1004F08BF5FEA500E50F1C6
:10183000000041EB045170BD06F0004646EA01018C
:1018400040EA020081EA0301B4EB5C04C2BFD4EBBE
:101850000C0541EA045170BD41F480114FF0000EB7
:10186000013C00F3AB8014F1360FDEBF002001F025
:10187000004170BDC4F10004203C35DA0C341BDC9F
:1018800004F11404C4F1200500FA05F320FA04F071
:1018900001FA05F240EA020001F0004221F00041A5
:1018A00010EBD37021FA04F642EB06015EEA430E18
:1018B00008BF20EAD37070BDC4F10C04C4F1200548
:1018C00000FA04F320FA05F001FA04F240EA0200FB
:1018D00001F0004110EBD37041F100015EEA430ECC
:1018E00008BF20EAD37070BDC4F1200500FA05F2EC
:1018F0004EEA020E20FA04F301FA05F243EA02036B
:1019000021FA04F001F0004121FA04F220EA020079
:1019100000EBD3705EEA430E08BF20EAD37070BDBF
:1019200094F0000F0FD101F00046400041EB01019F
:1019300011F4801F08BF013CF7D041EA060195F081
:10194000000F18BF704703F00046520043EB03033B
:1019500013F4801F08BF013DF7D043EA0603704728
:1019600094EA0C0F0CEA135518BF95EA0C0F0CD033
:1019700050EA410618BF52EA4306D1D181EA030179
:1019800001F000414FF0000070BD50EA410606BF73
:101990001046194652EA430619D094EA0C0F02D1B8
:1019A00050EA013613D195EA0C0F05D152EA0336FD
:1019B0001CBF104619460AD181EA030101F000411B
:1019C00041F0FE4141F470014FF0000070BD41F064
:1019D000FE4141F4780170BD70B54FF0FF0C4CF43E
:1019E000E06C1CEA11541DBF1CEA135594EA0C0F5D
:1019F00095EA0C0F00F0A7F8A4EB050481EA030EAA
:101A000052EA03354FEA013100F088804FEA033390
:101A10004FF0805545EA131343EA12634FEA02225E
:101A200045EA111545EA10654FEA00260EF000411F
:101A30009D4208BF964244F1FD0404F5407402D271
:101A40005B084FEA3202B61A65EB03055B084FEA02
:101A500032024FF480104FF4002CB6EB020E75EBFF
:101A6000030E22BFB61A754640EA0C005B084FEA27
:101A70003202B6EB020E75EB030E22BFB61A7546A4
:101A800040EA5C005B084FEA3202B6EB020E75EBEF
:101A9000030E22BFB61A754640EA9C005B084FEA67
:101AA0003202B6EB020E75EB030E22BFB61A754674
:101AB00040EADC0055EA060E18D04FEA051545EA63
:101AC00016754FEA06164FEAC30343EA52734FEA0C
:101AD000C2025FEA1C1CC0D111F4801F0BD141EA85
:101AE00000014FF000004FF0004CB6E711F4801FEA
:101AF00004BF01430020B4F1FD0C88BFBCF5E06FCA
:101B00003FF6AFAEB5EB030C04BFB6EB020C5FEAD9
:101B1000500C50F1000041EB045170BD0EF0004E2E
:101B20004EEA113114EB5C04C2BFD4EB0C0541EA60
:101B3000045170BD41F480114FF0000E013C90E65D
:101B400045EA060E8DE60CEA135594EA0C0F08BF21
:101B500095EA0C0F3FF43BAF94EA0C0F0AD150EA20
:101B600001347FF434AF95EA0C0F7FF425AF1046B3
:101B700019462CE795EA0C0F06D152EA03353FF4DB
:101B8000FDAE1046194622E750EA410618BF52EA58
:101B900043067FF4C5AE50EA41047FF40DAF52EA2C
:101BA00043057FF4EBAE12E70FB410B5074B82B0DC
:101BB00004AC54F8042B186823468168019400F0A3
:101BC00007F802B0BDE8104004B0704740040020A0
:101BD0002DE9F04FBFB01C4689460892074602F037
:101BE00041FD03680C941846159303F0C5FC16904C
:101BF0001FB1BB6B002B00F0F480B9F80C2093B23E
:101C00009D040AD4D9F8641042F4005321F4005121
:101C1000A9F80C30C9F864109BB2180740F1AB80EA
:101C2000D9F81020002A00F0A68003F01A030A2B2E
:101C300000F0AD8000231A460DF1B80C6446B8469A
:101C4000119314931793099323932293CDF884C08F
:101C500012921392089D2B78002B00F0C680252B42
:101C600002D1C2E0252B03D015F8013F002BF9D19A
:101C7000089BEE1A7EB1229B239A013308993244C5
:101C8000072B84E842002392229300F393800834C8
:101C9000099B334409932B78002B00F09380002399
:101CA0004FF0FF3A1A465646691C6D788DF867303A
:101CB0000A9306934B1CA5F12001582900F2C0831A
:101CC000DFE811F05602BE03BE039902BE03BE0355
:101CD000BE03BE03BE03BE03A0026402BE03F20144
:101CE000F002BE036E02750275027502750275027E
:101CF0007502750275027502BE03BE03BE03BE0304
:101D0000BE03BE03BE03BE03BE03BE0366032703BA
:101D1000BE032703BE03BE03BE03BE035F03BE03B1
:101D2000BE030A03BE03BE03BE03BE03BE03A80375
:101D3000BE03BE037F03BE03BE03BE03BE03BE03DA
:101D4000BE03BE03BE03BE03BE039403AE0227035D
:101D500027032703CC02AE02BE03BE03D302BE0399
:101D6000DD02F90184025D02BE030B02BE03950091
:101D7000BE03BE0330023846494601F08BF9A0B9D4
:101D8000B9F80C3003F01A030A2B7FF453AFB9F9FA
:101D90000E30002BFFF64EAF38464946089A2346D0
:101DA00001F03AF93FB0BDE8F08F4FF0FF303FB09F
:101DB000BDE8F08F4046494621AA03F047FC40B9F0
:101DC0002EAC65E7239B23B14046494621AA03F088
:101DD0003DFCB9F80C305A06E7D409983FB0BDE88D
:101DE000F08F384602F0DCFA07E7089D53E70893C6
:101DF000069BB2469E0640F117830C9F073727F0DB
:101E0000070303F10802D3E900670C9201230022C3
:101E10009446CDF83CA08DF86720BAF1000F03DBA3
:101E2000069A22F08002069256EA070240F02A83C0
:101E3000BAF1000F00F02884012B00F02B83022B55
:101E400000F075842EA9F20842EA4772F80806F0FD
:101E5000070307461646303356EA070201F8013DEC
:101E6000F1D1069A0E91D00700F113852EAB5B1AC3
:101E70000B930B9A53469245B8BF13460793002322
:101E80001093BCF1000F02D0079B01330793069B10
:101E900013F002030D9302D0079B02330793069BB6
:101EA00013F0840640F0EB820A9B079AC2EB030A08
:101EB000BAF1000F40F3E382BAF1100F2399229A8E
:101EC000B44FC8BF4FF0100B07DC1EE0AAF1100A98
:101ED000BAF1100F04F1080417DD01321031072A9E
:101EE0002391229284E88008F0DD4046494621AAE9
:101EF00003F0ACFB00287FF46CAFAAF1100ABAF132
:101F0000100F2EAC2399229AE7DC01320AEB010B69
:101F1000072ACDF88CB0229284E8800400F3A482D2
:101F20009DF867C00834BCF1000F0FD0229B0BF165
:101F3000010B01330DF167010122072BCDF88CB0A5
:101F4000229384E8060000F3BD8308340D9B73B12F
:101F5000229B0BF1020B01331AA90222072BCDF8A9
:101F60008CB0229384E8060000F3B8830834802EF6
:101F700000F0FB820F9B0B9AC2EB030ABAF1000F31
:101F800032DDBAF1100F229A834F22DD10265B4614
:101F900006E0AAF1100ABAF1100F04F1080417DDE7
:101FA00001321033072A2393229227606660F0DD06
:101FB0004046494621AA03F049FB00287FF409AFB7
:101FC000AAF1100ABAF1100F2EAC239B229AE7DC7B
:101FD0009B460132D344072ACDF88CB0229284E884
:101FE000800400F363830834069BDB0500F16682FE
:101FF000229B0B9901330E9A8B44072BCDF88CB0A2
:1020000022606160229300F380830834069B5907A5
:102010003AD50A9B079A9D1A002D35DD102D229B7B
:102020005C4F1EDD10265A4604E0103D102D04F1D1
:10203000080415DD01331032072B23922293276009
:102040006660F2DD4046494621AA03F0FFFA002807
:102050007FF4BFAE103D102D2EAC239A229BE9DCFD
:1020600093460133AB44072BCDF88CB02293276005
:10207000656009DD4046494621AA03F0E7FA0028D9
:102080007FF4A7AEDDF88CB0099B079A0A998A42C3
:10209000ACBF9B185B180993BBF1000F40F0EA82BC
:1020A000002322932EACD5E51946069840F0040093
:1020B00006901D78FEE50893069BB24613F02003B8
:1020C00000F015810C9F073727F0070303F1080282
:1020D000D3E900670C92002399E60C9A08931368E1
:1020E0004FF0000B0E938DF867B0171D002B00F01A
:1020F0007E86002E0E98C0F230865946324602F097
:10210000ABFD002800F0AF860E9BCDF83CB0C31AA3
:102110000B930C9723EAE3730793CDF840B09DF837
:1021200067C0AEE608931D4BB2461493069B8DF82C
:102130006720990640F14F810C9F073727F007036E
:1021400003F108020C92D3E90067069BDB0740F11C
:10215000078356EA070300F00383069A302342F010
:1021600002028DF868308DF86950069202234EE61F
:10217000002A40F031851D78194620229AE50699FB
:1021800041F0200106911D78194693E51D78194606
:102190002B228FE574690008206900085469000843
:1021A000069941F0800106911D78194682E5A5F156
:1021B0003000002113F8015B01EB810100EB4101CC
:1021C000A5F130000928F5D90A9174E50C9A069911
:1021D000089330238DF86830B44BB24678251668E2
:1021E00041F002010432149306910C9200278DF8FD
:1021F000695002230BE6069941F0010106911D7812
:10220000194657E50C9D296808460A912946002879
:1022100001F10401C0F26F850C911D78194649E562
:102220000893069BB24699068DF8672040F1BC8062
:102230000C9F073727F00707D7E9002307F10801AC
:1022400016461F460C91002A73F10003C0F2E68384
:102250009DF867C0CDF83CA00123DEE5069941F06A
:10226000400106911D78194624E51D7806996C2DCC
:1022700000F03A8541F01001069119461AE50893DD
:10228000069B8DF867209A0640F175840C9A1346D8
:1022900004330C93099B1168DF171A463B46C1E9CA
:1022A0000023D7E41D78591C2A2D00F09E86A5F145
:1022B000300009280B464FF000063FF6FCAC13F83F
:1022C000015B06EB860600EB4606A5F13000092807
:1022D000F5D946EAE676EEE40893069BB24643F06B
:1022E00010030693069B13F020037FF4EBAE069ACF
:1022F00012F0100240F08182069B13F0400300F0C0
:102300007C820C9913460A4604320E8800270C92F0
:102310007DE50893069B0C9F1B07B2468DF867204E
:10232000B34607F1070740F10B8427F0070303F1D9
:1023300008020C921A685B68129213931399129810
:1023400003F09AF801281399129840F0758300223F
:10235000002303F0A7FF002840F06B859DF867C0BD
:10236000534A544B069E472DD8BF1A4603210020DE
:1023700026F0800607910F9006960E920B91109012
:102380007FE5069941F0080106911D78194691E410
:102390000893069BB24643F010030693069B8DF804
:1023A000672099063FF544AF069BDA0640F1D383D8
:1023B0000C9A13461E680433F7170C9332463B46BB
:1023C00041E708933C4BB2461493069B8DF8672077
:1023D00099063FF5B1AE069BDA0640F1F1830C9AFF
:1023E00000271346043316680C93AEE60C98089346
:1023F000026800238DF89020024601219C46043299
:102400008DF867300F93109324AB07910C920B91CA
:102410000E933CE50893069BB24643F010030693E7
:10242000069B9E063FF5E9AC069BD80640F1BA83B1
:102430000C9A134604321E68002701230C92E6E42E
:1024400008938DF86720002D3FF4BCAC00230122D7
:102450009C468DF867300F93109324AB07928DF84C
:1024600090500B920E9312E54046494621AA03F084
:10247000EDF800287FF4ADAC9DF867C02EACDDF818
:102480008CB050E5012B7FF4DAAC002F08BF0A2E88
:1024900080F0E4810DF1F80B30360BF8416D2EAB76
:1024A000CBEB03030B93CDF838B0E2E4546900089A
:1024B000346900083069000840690008652D40F360
:1024C0008A80129813990022002303F0E1FE00286D
:1024D00000F04981229BBA4901330BF1010B012223
:1024E000072BCDF88CB0229384E8060000F3858397
:1024F00008341B9B119A934203DB069BDF077FF591
:1025000085AD229B16990133159A8B44072BCDF884
:102510008CB022606160229300F3F4830834119B35
:102520005D1E002D7FF772AD102D229BA54F40F34D
:10253000E28010265A4604E00834103D102D40F386
:10254000D98001331032072B2392229327606660D3
:10255000F2DD4046494621AA03F078F800287FF4CE
:1025600038AC2EAC239A229BE7E70A9B079A9E1A67
:10257000002E7FF7FFAC102E229A924F1FDD4FF0F6
:10258000100A5B4604E0103E102E04F1080415DD2D
:1025900001321033072A2393229284E88004F2DD6B
:1025A0004046494621AA03F051F800287FF411ACB7
:1025B000103E102E2EAC239B229AE9DC9B46013262
:1025C000B344072ACDF88CB022922760666000F3EE
:1025D00018820834CEE4119B229D012B0BF10106D9
:1025E00005F1010540F3C7810E9A0123072D2396BB
:1025F00022602295636000F3D7810834169A013572
:10260000159B1644072D239622952360626000F3E4
:10261000D7810834002312981399002203F038FE62
:10262000119B002840F0F1800E9A013B01350132E8
:102630001E44072D226022952396636000F3D58106
:102640000834179A013506EB020B1DAB072DCDF8A8
:102650008CB02295626023607FF7D7AC4046494634
:1026600021AA02F0F3FF00287FF4B3AB2EACDDF813
:102670008CB0CBE44046494621AA02F0E7FF00288F
:102680003FF40EADFFF7A5BB002B4AD1069BDA073E
:1026900047D50DF1F80B30230BF8413D2EABCBEBBA
:1026A00003030B93CDF838B0FFF7E3BB4046494630
:1026B00021AA02F0CBFF00287FF48BAB2EACDDF813
:1026C0008CB091E44046494621AA02F0BFFF0028A1
:1026D0007FF47FAB2EACDDF88CB037E44046494642
:1026E00021AA02F0B3FF00287FF473AB2EACDDF813
:1026F0008CB03CE493460133AB44072BCDF88CB04F
:102700002293276065607FF780AC4046494621AA46
:1027100002F09CFF00287FF45CABDDF88CB02EAC9F
:1027200074E42EABCDF82CA00E93FFF7A2BB149847
:102730000DF1B80B330943EA0773390906F00F02AC
:102740000F461E46835C0BF8013D56EA0703F1D1A4
:102750005A462EAB9B1ACDF838B00B93FFF789BBC6
:102760000223FFF754BB1B9D002D40F35282119AA8
:10277000109913468A42A8BF0B461D460E99002D9C
:1027800001EB020A0CDD0A46229BAB440133072B06
:10279000CDF88CB084E82400229300F3058308343C
:1027A000109B002DA8BF5B1B002B1D4640F38B80A8
:1027B000102D229B034F40F3148210265A4608E046
:1027C00070690008206900080834103D102D40F39E
:1027D000078201331032072B239222932760666011
:1027E000F2DD4046494621AA02F030FF00287FF47E
:1027F000F0AA2EAC239A229BE7E70C9900270A4601
:1028000004320E680C92FFF702BB03F1FF3ABAF1F3
:10281000000F7FF716AFBAF1100F864FC8BF4FF009
:10282000100B07DCD8E00834AAF1100ABAF1100F37
:1028300040F3D28001351036072D2396229584E887
:102840008008F0DD4046494621AA02F0FFFE00283C
:102850007FF4BFAA2EAC239E229DE5E70DF1B80BB5
:10286000CDF81CC0304639460A22002303F06AFD29
:102870003032304639460BF8012D00230A2203F08E
:1028800061FD06460F4656EA0703EBD1DDF81CC092
:102890005EE7302B00F042820E9B2EA8013B1A46C9
:1028A0000E93821A30230B9201F8013CFFF7E1BA34
:1028B0004046494621AA02F0C9FE00287FF489AAB1
:1028C000DDF88CB02EAC0E9A10991B9B0A4416466C
:1028D000119A934240DB069AD5073DD4119AC6EB74
:1028E0000A05D31A9D42A8BF1D46002D2F460BDDB9
:1028F000229AAB440132072ACDF88CB084E8C0009C
:10290000229200F387820834002FB4BF1D46DD1BDE
:10291000002D7FF77BAB102D229B464F7FF7EBAE50
:1029200010265A4604E00834103D102D7FF7E2AE21
:1029300001331032072B2392229327606660F2DD69
:102940004046494621AA02F081FE00287FF441AAB0
:102950002EAC239A229BE7E7229A1698013215990A
:102960008344072ACDF88CB021606060229200F386
:1029700031820834B2E7069BD8073FF535AE0E9A90
:102980000123072D23962260229563607FF758AEBE
:102990004046494621AA02F059FE00287FF419AAB0
:1029A0002EAC239E229D4CE64046494621AA02F0C9
:1029B0004DFE00287FF40DAA2EAC239E229D1DE61D
:1029C0004046494621AA02F041FE00287FF401AAB0
:1029D0002EAC239E229D1DE601355644072D2396DD
:1029E000229584E880047FF72BAE4046494621AA11
:1029F00002F02CFE00287FF4ECA9239E229D2EAC31
:102A00001FE64046494621AA02F020FE00287FF436
:102A1000E0A92EACDDF88CB0FFF7ACBA4FF02D0C6E
:102A2000764267EB47078DF867C0CDF83CA00123DD
:102A3000FFF7F3B92069000802F01EFD002800F03E
:102A40002D8125F02003BAF1FF3F0B9300F078822F
:102A5000472B05D1BAF1000F14BFD3464FF0010B3D
:102A6000069B43F480730F93139BB3F1000A129BF0
:102A70000793B7BF5346002303F1004A2D23662D69
:102A80000D9300F07381462D00F070810B9B0220A6
:102A9000452B14BF5F460BF101071BA98DE8810090
:102AA00002911CA81FA90390079A5346049140461F
:102AB00000F0EAFB672D0E9002D0472D40F06681B2
:102AC000069BDB0740F159820E9BDE1907985146A1
:102AD0000022002303F0DCFB002840F0C2811F9B92
:102AE0009E4206D930215A1C1F9219701F9B9E428C
:102AF000F9D80E9A9B1A11930B9B472B1B9B00F046
:102B0000A981652D40F3BB81662D109300F02882CA
:102B1000119B109A934200F31682069BD90700F18D
:102B20003C8222EAE2730B920D9A002A40F08781E0
:102B300007930F9B9DF867C006930F92FFF7A1B90B
:102B400027F007073B6812937B68139307F108038C
:102B50000C93FFF7F3BB069B0C9A13F0400F134640
:102B60003FF428ACB2F900600433F7170C933246F7
:102B70003B46FFF768BB069BDB060BD4069B5F0654
:102B800008D50C9A136804320C92BDF824201A80E0
:102B9000FFF760B80C9A136804320C92099A1A6015
:102BA000FFF758B8069B0C9A13F0400F13463FF4FA
:102BB00041AC16880432002701230C92FFF727B995
:102BC000069B0C9A13F0400F13467AD004331688F4
:102BD00000270C93FFF7B9BA19461D78FFF76AB8BA
:102BE00093460133AB44072BCDF88CB0229327607A
:102BF00065603FF75DAE083465E64046494621AA68
:102C000002F024FD00287FF4E4A82EACDDF88CB09F
:102C10006FE4229BB04901330BF1010B0122072B1A
:102C2000CDF88CB0229384E8060050DC08342DB92E
:102C3000119B1BB9069BDE077FF5E8A9229B16991D
:102C4000013315980BEB0102072B239284E8030054
:102C5000229300F3688108346D42002D6FDD102D42
:102C60009E4FC8BF102605DCAAE00834103D102D89
:102C700040F3A68001331032072B23922293276062
:102C80006660F2DD4046494621AA02F0DFFC0028DA
:102C90007FF49FA82EAC239A229BE7E7904A914BA2
:102CA000069E472DD8BF1A46032126F080060F90B6
:102CB0000791069610900E920B919DF867C0FFF752
:102CC000E0B80433166800270C93FFF73EBA40467D
:102CD000494621AA02F0BAFC00287FF47AA82EAC5B
:102CE0001B9DDDF88CB0A2E741F0200106915D78D4
:102CF000591CFEF7DFBF0A980C9140420A90194612
:102D0000FFF7D3B94046494621AA02F09FFC0028AC
:102D10007FF45FA82EACDDF88CB000E40E9A2EABE9
:102D20009B1A0B93FFF7A5B84046494621AA02F02B
:102D30008DFC00287FF44DA8239A229B2EAC11987D
:102D4000013302EB000B0E9A072BCDF88CB02293C7
:102D5000226060607FF759A9D7E4CDF83CB002F05B
:102D60000BFC0C970B900346FFF7D4B903201BA96B
:102D70008DE8010802911CA81FA90390079A5346E9
:102D80000491404600F080FA5F460E900E9BDE19DB
:102D90000B9B462B7FF49AAE0E9B1B78302B00F0DA
:102DA000EE801B9F3E4491E64046494621AA02F030
:102DB0004DFC00287FF40DA82EACDDF88CB0EFE4BC
:102DC00001332A44072B2392229327606560ABDCF2
:102DD0000834B4E74046494621AA02F037FC0028EF
:102DE0007EF4F7AF2EAC1B9BDDF88CB076E5334656
:102DF000062E28BF06230B9323EAE373DDF838C0C1
:102E00000793394B0C97CDF83CC0CDF840C00E93DA
:102E1000FFF737B84046494621AA02F017FC0028C0
:102E20007EF4D7AF1B9B119ADDF88CB0D31A2EAC71
:102E30006AE52D239C468DF86730FFF791BA07931A
:102E40000F9B4FF02D0C069300238DF867C00F9356
:102E5000FFF71AB8DF1C11DB9B450FDB10936725CA
:102E600056E6334645E626EAE6730F900C97109037
:102E70009DF867C007930B96FFF703B8023D013B2F
:102E8000002B1B93BABF5B422D222B22092B8DF8FE
:102E900074508DF8752040F386800DF18300014653
:102EA000124A82FB0326DA17C2EBA60606EB86025D
:102EB000A3EB42023032092E334601F8012DEFDC3C
:102EC0000A463033DEB202F8016D904240F2A08033
:102ED0000DF176020B460DE07069000820690008CC
:102EE0003C6900083869000868690008676666661A
:102EF00013F8016B834202F8016BF9D121AB5B1A25
:102F00000DF1760213441DAA9B1A119A1793012AF8
:102F100013440B9357DD0B9B002201330B9310924C
:102F200023EAE37300E64046494621AA02F08EFBFD
:102F300000287EF44EAF2EAC1B9D239A229B8BE67D
:102F40004FF0060B8CE5109B002BD8BFC3F1020697
:102F5000119BC8BF0126F3180B9323EAE373E3E543
:102F6000002B39DDBBF1000F25D1069BDE0722D4F3
:102F7000109A22EAE2730B92D6E51F9BB9E50798F7
:102F800051460022002303F083F900287FF409AFA3
:102F9000C7F101071B973E4498E5109B01330B9343
:102FA00023EAE373C0E5303330228DF877308DF8B3
:102FB00076201EABA7E7109B0BF1010633440B9361
:102FC00023EAE373B0E5069B13F00103A3D110934A
:102FD0000B9B23EAE373A7E5BBF1000F12D1069B1D
:102FE000D8070FD401230B939EE50C9D28462E682D
:102FF0000430002E5D780C90BEF65CAE4FF0FF36CC
:10300000FEF758BE0BF102030B9323EAE3738BE543
:103010000DF1760377E700BF2DE9F04588464F6E46
:10302000ADF26C4D1997D8F81C70B1F80CE0B1F8FE
:103030000EA00797D8F824701AAC4FF480652EF0D4
:10304000020E002669460094049402950595ADF899
:103050000CE0ADF80EA0099706960546FEF7B8FD00
:10306000041E07DB2846694601F006F9B04218BF86
:103070004FF0FF34BDF80C305B0605D5B8F80C30C6
:1030800043F04003A8F80C3020460DF26C4DBDE82B
:10309000F08500BF38B52F4B054618680C4610B1B7
:1030A000836B002B36D0A28993B218070CD5206908
:1030B000A8B113F001021ED0636900225B42A36134
:1030C000A260F0B1002038BDD9063AD5580724D403
:1030D000206942F00803A3819BB20028E9D103F4E0
:1030E0002072B2F5007FE4D02846214601F0BEFAF6
:1030F000A3892069DDE7990758BF6269A2600028AB
:10310000E0D1A3891A06DED543F04003A3814FF036
:10311000FF3038BD01F044F9C5E7216B49B104F136
:103120004003994203D0284601F092F9A289002376
:103130002363206922F02402002392B284E809006C
:10314000C7E742F0400209232B604FF0FF30A28115
:1031500038BD00BF400400202DE9F04F03690F691E
:1031600083B09F4200F38B80013F01F1140600F110
:10317000140A56F827305AF827200133B2FBF3F827
:10318000BB00009306EB030953440193B8F1000F11
:103190003DD000231C46B446D6461A465CF804BB14
:1031A000DEF800501FFA8BF34FEA1B4B03FB08229B
:1031B0000BFB08F303EB124392B2A41A1FFA83FB32
:1031C000AAB22244CBEB154404EB224492B242EA69
:1031D0000442E1454EF8042B4FEA24444FEA1342DF
:1031E000DCD2009B5AF803308BB9019C231F9A450F
:1031F0000CD254F8043C4BB9A4F1080302E01A685D
:10320000043B1AB99A4507F1FF37F8D30761044622
:1032100002F048F800282EDB00235546194608F135
:10322000010856F8042B2B6890B2081A120C99B2B8
:10323000C2EB1343421803EB224392B242EA034229
:10324000B14545F8042B4FEA2341EAD25AF827202A
:103250000AEB87037AB91A1F92450BD253F8042C54
:1032600042B9083B02E01A68043B1AB99A4507F1D3
:10327000FF37F8D32761404603B0BDE8F08F002048
:1032800003B0BDE8F08F00BF2DE9F04F016C99B09D
:103290000446CDE90223259D41B1426C01239340B0
:1032A0008B604A6001F012FE00232364DDE90223F3
:1032B000002B994636DB00232B60A54B1A4609EA02
:1032C0000303934217D0DDE9026700220023304652
:1032D000394602F0DDFF804600282BD0249A0123D6
:1032E0001360269B002B00F0CB809A4818600138B1
:1032F00019B0BDE8F08F42F20F73249A1360029B5D
:10330000002B00F0A6809448269B002BF0D0C378B9
:10331000002B00F0B78000F10803269A136019B063
:10332000BDE8F08F039A012322F000492B60CDF80D
:103330000C90C2E717AA16AB8DE80C002046324667
:103340003B4602F045F85FEA1955834640F08A8013
:10335000DDF85880179D6FF4826345449D42C0F2AA
:1033600095827E4A05F21243521B09FA02F9029A2B
:1033700022FA03F049EA0000FEF78EF90123013D2D
:10338000A1F1F87112930022754BFEF747F86AA37A
:10339000D3E90023FEF7F6F969A3D3E90023FEF78A
:1033A0003FF8064628460F46FEF786F966A3D3E99E
:1033B0000023FEF7E7F902460B4630463946FEF792
:1033C0002FF806460F4602F095FF39460590002279
:1033D0003046002302F066FF002840F0A481059BE0
:1033E000162B00F29D81DDE9022305985D4901EB72
:1033F000C001D1E9000102F073FF002800F0508203
:10340000059B013B059300230C93C5EB0805B5F123
:10341000010A00F19F8100230693059B002BC0F257
:1034200090819A440B9300230993229B092B2BD85C
:10343000052B40F37786043B22930025229B023B19
:10344000032B00F25586DFE813F0CF03C103B0026F
:103450006A06414B444AC9F31300002814BF1846BA
:10346000104651E7C7F3130343F07F51CDF848806E
:103470003046A5F2FF3541F44011DDF8588082E76F
:103480003A4835E7C31C48E7002161642046229191
:1034900001F0F4FC4FF0FF33229A07930D930123C0
:1034A0000890239220640A93179B002BC0F2D080CF
:1034B000059A0E2A00F3CC802A4B03EBC203D3E912
:1034C0000089239B002BC0F29283DDE9026742460C
:1034D0004B4630463946FEF77FFA02F00BFF824634
:1034E000FEF7EAF842464B46FEF74CF902460B4619
:1034F00030463946FDF792FF079E089F0AF13005D6
:10350000012E3D7002460B4607F1010562D00022F4
:10351000174BFEF737F90022002306460F4602F04C
:10352000B7FE002840F08180CDF808B0DDF820A07B
:10353000DDF81CB006942AE061436F63A787D23F91
:10354000B3C8608B288AC63FFB799F501344D33F92
:103550000000F07F71690008906900080EFCFFFF11
:103560000000F83FB069000884690008706900082D
:10357000000024400022C84BFEF704F9002200237B
:1035800006460F4602F084FE002840F0E0834246E3
:103590004B4630463946FEF71FFA02F0ABFE0446B2
:1035A000FEF78AF842464B46FEF7ECF802460B4619
:1035B00030463946FDF732FF04F1300605F8016B5D
:1035C000CAEB0506B34502460B46D3D1A246DDF849
:1035D00008B0069C10461946FDF722FF06460F4626
:1035E0004046494632463B4602F05CFE48B94046FA
:1035F000494632463B4602F04BFEB0B11AF0010F8D
:1036000013D015F8018C6B1E089904E08B4200F072
:10361000458413F8018DB8F1390F03F101051A46FD
:10362000F4D008F10103DBB213702046594601F0D3
:103630004DFC0022059B2A70249A01331360269BBF
:10364000002B00F04A8308981D6019B0BDE8F08F88
:103650000A9A002A00F08480229A012A40F3098302
:10366000079B5F1E099BBB42C0F2AF83DF1B079B1A
:10367000002BC0F2A584069D079B069A20461A449B
:10368000012106929A4401F0BBFC064665B1BAF1ED
:10369000000F09DDAA455346A8BF2B46069AED1A2E
:1036A000D21A0692C3EB0A0A099B002B1ADD0A9B69
:1036B000002B00F08383002F10DD31463A46204670
:1036C00001F048FD06465A463146204601F0A2FC6C
:1036D00080465946204601F0F9FBC346099BDA1B98
:1036E00040F0A7822046012101F08AFC0B9B804616
:1036F000002B39DD01461A46204601F02BFD229BA6
:103700008046012B40F39B824FF00009D8F810301F
:1037100008EB8303186901F025FCC0F120002DE0BF
:1037200001230C9371E60598FDF7C6FF32463B4630
:1037300002F0AEFD00287FF452AE059B013B0593DD
:103740004DE6069A059BD21A5B4209930023069226
:103750000B936AE6CAF1000306934FF0000A5CE699
:10376000099F069D0A9E91E7229B012B40F3B88298
:103770004FF000090B9B002BC8D10120504410F0E2
:103780001F0000F08180C0F12003042B40F3C184AE
:10379000C0F11C00069B0544034406938244069B2B
:1037A000002B05DD59461A46204601F023FD8346CD
:1037B000BAF1000F05DD41465246204601F01AFDE0
:1037C00080460C9B002B40F06D82079B002B40F342
:1037D0009B820A9B002B71D1DDF82090079F4D46FC
:1037E00004E05946204601F07BFB8346584641469B
:1037F000FFF7B2FC303005F8010BC9EB0503BB4203
:103800004FF00A024FF00003EBDB089B079A844657
:10381000012AACBF9B1801331D464FF0000A5946E0
:1038200001222046CDF808C001F0E4FC4146834661
:1038300001F038FD0028DDF808C040F3FC8215F8DF
:10384000012C6B1E089904E08B4200F0798213F87A
:10385000012D392A03F10105F6D001321A704146D3
:10386000204601F033FB002E3FF4DFAEBAF1000F2B
:1038700005D0B24503D05146204601F027FB314622
:10388000204601F023FBD0E61C2083E7034B029A7D
:103890005B1B02FA03F06FE500002440EEFBFFFF24
:1038A0000C90B2E53146002320460A2201F018FBB5
:1038B0000D9B0646002B40F315840793002D05DD74
:1038C00031462A46204601F095FC0646B9F1000F24
:1038D00040F0EE82B146089A079B1746013BD31889
:1038E0000993029B03F001030A9341465846FFF7F0
:1038F00033FC31460546584601F0D4FC4A46824620
:103900004146204601F0F2FCC268034605F1300C46
:10391000002A40F0BD8119465846CDF81CC00693D8
:1039200001F0C0FC069B02901946204601F0CEFA39
:10393000029ADDF81CC02AB9229B1BB90A9B002BF6
:1039400000F0B083BAF1000FC0F2578205D1229B7C
:103950001BB90A9B002B00F05082002A00F3BC82A6
:10396000099B07F1010A9F4287F800C0554600F005
:10397000BF8259460A220023204601F0B1FA4E4583
:103980008346314620464FF00A024FF0000300F014
:10399000798101F0A5FA494606460A22204600230D
:1039A00001F09EFA574681469FE701230A93239B25
:1039B000002B40F319821F461E460D9307930021EA
:1039C000172F61640AD9012204235B0003F114005C
:1039D0008742114602F10102F7D26164204601F0EC
:1039E0004DFA0E2E089020643FF65EAD002D3FF498
:1039F0005BADDDE902230599CDE90E23002940F3F3
:103A00002682BA4B01F00F020D1103EBC203E90647
:103A1000D3E9006740F1E181DDE90E01B44B05F027
:103A20000F05D3E90823FDF7D7FFCDE902014FF0D9
:103A300003088DB130463946DFF8B492EA0705D560
:103A4000D9E90023FDF79EFE08F101086D1009F188
:103A50000809F3D106460F46DDE9020132463B462E
:103A6000FDF7BAFFCDE902010C9B43B1DDE902018C
:103A70000022A04B02F016FC002840F0B582404620
:103A8000FDF71AFEDDE90223FDF77CFE9A4B0022CA
:103A9000FDF7C6FC079B0646A1F15077002B00F00E
:103AA0006881059BDDF81CC013930A9B002B00F076
:103AB00026828E4B002003EBCC0353E902238F496F
:103AC000CDF850C0FDF788FF32463B46FDF7A6FC17
:103AD000DDE90267CDE910013946304602F00AFC03
:103AE0000546FDF7E9FD02460B4630463946FDF72F
:103AF00095FCDDE9102330355FFA85F8089D064610
:103B000085F800800F46013502F0CCFB002840F01C
:103B1000B98232463B4600207649FDF77FFC0246DB
:103B20000B46DDE9100102F0DBFB002840F0B38218
:103B3000DDF850C0BCF1010F40F33A81089BCDF88D
:103B400050A0CDF808B003EB0C09DDE910ABA0469E
:103B50000FE032463B4600206649FDF75FFC5246C7
:103B60005B4602F09FFB002840F090824D4500F03C
:103B70001A81504659460022614BFDF703FE002290
:103B80005F4B82468B4630463946FDF7FBFD0F46BC
:103B9000064602F0AFFB0446FDF78EFD02460B46DB
:103BA00030463946FDF73AFC3034E4B205F8014BB3
:103BB00052465B4606460F4602F074FB0028C8D00A
:103BC000139BDDF808B0444605932EE500230A93C5
:103BD000239B059A13440D930133002B079340F365
:103BE0000A81079E3746EAE600230A93DFE6079B31
:103BF000002B3FF76AAC40F0668240460022414B02
:103C00004946FDF7BFFDDDE9022302F05FFBDDF869
:103C10001C804646002800F08B80239B089DDB43D8
:103C200005934146204601F051F9002E7FF427AE5E
:103C3000FBE45946204601F08DFA834652E5029B8B
:103C4000002B7FF461AD039BC3F31303002B7FF4C0
:103C50008FAD039B23F000473F0D3F05002F00F081
:103C60001E82069B0AF1010A013306934FF00109F7
:103C700080E5129A002A00F0A98103F23343099FDC
:103C8000069DFAE401F02CF95746064681462CE6DB
:103C900001462046CDF808C001F018F90122DDF8F0
:103CA00008C04FE65846414601F0FCFA0028BFF62E
:103CB0008CAD059F5946002320460A22013F0597F7
:103CC00001F00EF90A9B8346002B7FF4EBAD0D9BB0
:103CD000002B40F3FC8107937EE50898FFF708BBB3
:103CE000029B002B7FF444ADADE700BFB069000834
:103CF000786A00080000F03F00001C400000E03F30
:103D00000000244000001440229B022B7FF761AD8D
:103D1000079B002B81D141460522204601F0E0F8A7
:103D200080465846414601F0BDFA00287FF775AF3E
:103D3000059A08993123013205920B704D1C70E7EA
:103D4000059A312301320592089A137087E5DDF850
:103D500008B0069C69E44046FDF7AEFCDDE90223AD
:103D6000FDF710FD0022BE4BFDF75AFB0646A1F100
:103D70005077DDE902010022BA4BFDF74FFB3246D6
:103D80003B46CDE9020102F0ABFA8046002840F044
:103D9000B280DDE90201324607F1004302F082FA07
:103DA00030B1464639E74446DDF850A0DDF808B0AA
:103DB000DDE90E23CDE90223FFF776BB5946099AC8
:103DC000204601F0C7F983468CE4099B0B9AFB1A45
:103DD0001A4409970B92002749E4DDE90E234FF0BE
:103DE0000208CDE9022324E6012623960D960796C4
:103DF00000216164F2E51E46FAE7002A15DD594606
:103E000001222046CDF808C001F0F4F9414683466E
:103E100001F048FA0028DDF808C040F34D81BCF1FC
:103E2000390F00F009810CF1010CB24687F800C08F
:103E30007D1C4E4613E504D11CF0010F01D0FEE4B9
:103E4000154615F8013C6A1E302BF9D007E5059B95
:103E50005D42002D00F0C180DDE90E01824B05F0CE
:103E60000F0203EBC203D3E90023FDF78BFC2D11F6
:103E7000CDE9020100F030817C4E4FF00208EB07E3
:103E800005D5D6E90023FDF77DFC08F101086D108A
:103E900006F10806F3D1CDE90201E5E5059A3023E4
:103EA00001320592089A137031231370FFF7BDBBDE
:103EB0007168204600F0E2FF0546336906F10C0107
:103EC0009A1C92000C3000F011FF20462946012276
:103ED00001F090F98146FEE4BCF1390F00F0AC80AE
:103EE0000CF1010CB24687F800C07D1C4E46B6E4CA
:103EF000B2464E4693E44FF00008464618E75A494A
:103F00000CF1FF3301EBC3013246D1E900011493F8
:103F10003B46CDF854C0FDF735FCDDE90267CDE93D
:103F200010013946304602F0E5F90546FDF7C4FBBD
:103F300002460B4630463946FDF770FADDF854C0AC
:103F4000089A3035BCF1010F157006460F4602F194
:103F5000010523D0089BCDF808A063445E469A462D
:103F6000AB460022424BFDF70DFC8946804602F02D
:103F7000C1F90746FDF7A0FB303702460B46404625
:103F80004946FDF74BFA0BF8017BD345E9D1B3461F
:103F90000F460646149BDDF808A01D440022354B51
:103FA000DDE91001FDF73CFA32463B4602F07AF9B2
:103FB000002848D0139B059315F8018CFFF723BB0D
:103FC000069B079A9D1A0023FFF757BB169B099F74
:103FD000C3F13603069DFFF750BBDDE90E234FF01A
:103FE0000208CDE902233FE5079B002B3FF4B3AE67
:103FF0000D9D002D7FF7DCAEDDE9020100221C4B98
:10400000FDF7C0FB06460F4608F10100CDE9026747
:10401000FDF752FB02460B4630463946FDF7B2FB30
:104020000F4B0022FDF7FCF9059B0646013B13935D
:10403000A1F15077AC4638E53922B2463A704E4687
:104040007D1CFFF7FEBBDDE9102300200949FDF7C9
:10405000E5F932463B4602F043F970B9A8E600BFE5
:1040600000001C4000001440B0690008786A000895
:10407000000024400000E03F154615F8013C6A1E90
:10408000302BF9D0139B0593FFF7CFBA4346A046D8
:104090001C46DDF808B0139B0593FFF7B4BAB94688
:1040A000FFF768BBBCF1390FC6D0BAF1000F7FF73C
:1040B000BCAE05F1310CB8E67FF4B7AE1CF0010FD1
:1040C0003FF4B3AEABE64FF000084646A5E5229BB1
:1040D000022B04DC0D9BFEE54FF00208C4E40D9BAF
:1040E000079315E6229B022BF9DC0D9BFFF7E5BB3E
:1040F000002565642946204600F0C0FE4FF0FF33DE
:1041000007930D9301230890239520640A93FFF7EA
:10411000CBB93FF444ABC0F13C00FFF73BBB0123FC
:104120000A9355E50125FFF789B900BFAFF3008079
:104130008B892DE9F0419AB20D46110780463CD497
:104140006A6843F40063002AAB8165DDAE6A002E25
:104150004BD09BB203F48052002192B2D8F80040B9
:10416000C8F80010002A5BD02A6D5F0705D5696882
:104170002B6B521A0BB1EB6BD21A4046E969002344
:10418000B047461C56D0AB892A6923F400639BB222
:1041900000212A60DA04AB8169603BD4296BC8F83E
:1041A000004011B305F14003994202D0404600F0AF
:1041B0004FF900202863BDE8F0812E69AEB1910768
:1041C0002C680CBF6B6900232E60A41BAB600AE057
:1041D000324623466F6A4046E969B8470028A4EB97
:1041E0000004064404DD002CF2DC0020BDE8F08170
:1041F000AB894FF0FF3043F04003AB81BDE8F08165
:10420000AB892A6923F400639BB2AB81DB0469604C
:104210002A60C3D52865C1E7EA6B002A96DCE4E78B
:1042200001234046E969B047431C024619D0AB89D7
:10423000AE6A9AE7D8F800100029E1D01D2907D00E
:10424000162905D0AB8943F04003AB81BDE8F0816E
:10425000AB89296923F400630022AB8185E806005D
:104260009CE7D8F80030002BE1D01D2B01D0162B95
:10427000BED1C8F80040B8E710B5044682B008B116
:10428000836B53B1B1F90C0008B902B010BD2046E0
:1042900002B0BDE81040FFF74BBF019100F080F87D
:1042A0000199EFE7014900F0ABB900BF11570008D1
:1042B0002DE9F04F074635487D68002407F53B722D
:1042C00004230321F863C7F8E412C7F8E822C7F80B
:1042D000E04283B02C606C60AC606C66EC812C6159
:1042E0006C61AC61AB81214605F15C00082200F0F5
:1042F00073FDDFF89CB0BE68DFF898A0DFF89890F7
:10430000DFF8988001230922C5F820B0C5F824A061
:10431000C5F82890C5F82C80ED612146F381B28163
:1043200006F15C0034607460B4607466346174617A
:10433000B4610822019300F04FFDFD6812200222B3
:10434000F661C6F820B0C6F824A0C6F82890C6F8D2
:104350002C802146A881EA812C606C60AC606C6680
:104360002C616C61AC6105F15C00082200F034FD49
:10437000019BED61C5F820B0C5F824A0C5F82890D0
:10438000C5F82C80BB6303B0BDE8F08FA5420008E0
:10439000F5540008195500085155000871550008DA
:1043A000836B03B17047FFF783BF00BF704700BF47
:1043B000704700BFF8B50C46224F064600F05AFD84
:1043C000BB685D6825F00305291B01F6EF7121F438
:1043D0007F6121F00F01A1F58054B4F5805F07DB08
:1043E0003046002101F074F8BB682B44984204D099
:1043F000304600F041FD0020F8BD3046614201F03A
:1044000067F801300DD0104BBA6819682D1B45F0C4
:1044100001053046091B5560196000F02DFD012093
:10442000F8BD3046002101F053F8BA68831A0F2B0B
:10443000DEDD064C0449246843F00103001B536091
:104440000860D5E7A0040020C4080020AC080020C4
:1044500000294ED02DE9F0410C46804600F00AFDBF
:1044600054F8047C6249A4F1080527F00102AB1856
:104470008E6858689E4220F003005AD0FE075860AC
:104480000BD454F8087C01F1080EED1BAC683A44DB
:10449000744567D0EF68E760BC601C186468E40787
:1044A0000CD4544F9C680244BC427CD0D86842F083
:1044B0000103E06084606B60AA5003E042F00103F6
:1044C0006B60AA50B2F5007F14D2D20801EBC20390
:1044D00001244868921004FA02F29C681043AC6010
:1044E000EB6048609D60E5604046BDE8F04100F04B
:1044F000C3BC7047530A042B47D8930903F138040F
:10450000600001EB800083683949834243D05968D9
:1045100021F00301914202D99B689842F7D1DA68F1
:10452000EA60AB6040469560DD60BDE8F04100F0B8
:10453000A3BCFF07024407D454F8084C2D1BEB68BA
:10454000A8682244C36098602B4B42F001001B68AE
:1045500068609A428D60C7D3284B40461968FFF7C0
:1045600029FFC1E719184968C90709D4D968024465
:104570009B6842F00100D9608B606860AA50B3E785
:1045800042F001036B60AA50AEE7142B14D803F17C
:104590005B046000B5E74A68A4100120A040024314
:1045A0004A601A46BCE742F001034D610D61EC60C0
:1045B000AC606B60AA5097E7542B04D8130B03F13F
:1045C0006E0460009DE7B3F5AA7F04D8D30B03F116
:1045D0007704600095E740F25450834204D8930C6E
:1045E00003F17C0460008CE7FC207E2489E700BF97
:1045F000A0040020A8040020A8080020C008002073
:104600002DE9F84310F538761ED0884607464FF05E
:1046100000097568B468013D10D4A389013D012BE0
:1046200008D9B4F90E30013304D038462146C047CA
:1046300049EA00096B1C04F16804EED13668002ECB
:10464000E7D14846BDE8F883B1464846BDE8F8835F
:10465000004870477C040020014B1868704700BF79
:104660009C04002000487047440400208B899AB2C3
:1046700012F0020F3CD1F0B50C46B1F90E1091B01A
:104680000029054619DB01AA01F0EEF8002812DB2B
:10469000029B03F47043A3F50057B7FA87F7B3F50D
:1046A000004F4FEA57172AD0A3894FF4806643F48E
:1046B0000063A3810BE0A3899AB212F0800F43F448
:1046C0000063A3810CBF4FF4806640260027284674
:1046D000314600F03BF8A38940B31A4A43F0800307
:1046E000EA63A3812060206166619FB911B0F0BDCB
:1046F00001F1430301220B600B614A617047124BC9
:10470000A26A9A42D0D1A3894FF480663343A38131
:10471000E664DCE72846B4F90E1001F049FA0028F7
:10472000E4D0A38943F00103A381DFE79A05DDD438
:1047300004F1430243F002030121A38122602261BC
:104740006161D3E7A5420008515500082DE9F04FFB
:1047500001F10B05162D83B0064627D935F0070564
:1047600000F1B680A94200F2B38000F083FBB5F5FA
:10477000FC7F22D2BC4FE80807EBC003DC689C42F8
:1047800000F0BC816368E16823F0030323445A68A6
:10479000A56842F00102E96030468D605A6000F081
:1047A0006BFB0834204603B0BDE8F08F102900F2FF
:1047B0008F8000F05FFB1025DCE7680A00F08F8037
:1047C000042800F24781A80938304100A64F07EBC2
:1047D0008101CC68A14206D10CE0002A80F28280DF
:1047E000E468A14206D0636823F003035A1B0F2A32
:1047F000F3DD013801309C493C6901F1080E744534
:1048000000F07181636823F003035A1B0F2A00F341
:104810005781002AC1F814E0C1F810E066DAB3F558
:10482000007F80F02D81DB0801EBC3084FEAA30C69
:104830004A68012303FA0CF3D8F808C01343C4F8FC
:1048400008C0C4F80C804B60C8F80840CCF80C4095
:104850008210012494409C4255D8234206D120F076
:1048600003006400234200F10400FAD007EBC00803
:10487000C4468146DCF80C309C4507D135E100295F
:1048800080F24581DB689C4500F02F815A6822F058
:104890000302511B0F29F2DD1C46DA6854F808CFD9
:1048A00045F0010941F001081D44C3F80490304669
:1048B000CCF80C20C2F808C07D613D61C5F80CE061
:1048C000C5F808E0C5F80480695000F0D5FA69E73A
:1048D000002420460C23336003B0BDE8F08F7E2116
:1048E0003F2073E723445A68E16851E723445A683C
:1048F000304642F001025A60083400F0BDFA20460A
:1049000003B0BDE8F08FBC68636823F00308454539
:1049100004D8C5EB08030F2B00F38C80534BDFF852
:104920005CA11A68DAF800302A44013304EB080B62
:1049300000F0518102F580520F3222F47F6222F0A2
:104940000F0211463046019200F0C2FDB0F1FF3F68
:104950008146019A00F04881834500F2EF80444B84
:10496000CB4519681144196000F04381DAF8000062
:10497000DFF808E101301BBFCBEB090B5944CEF83F
:104980000090196019F0070100F00881C1F10800DA
:10499000C1F58051814408314A44C2F30B02C2EB95
:1049A000010A51463046019300F092FD431C019BE1
:1049B00000F02D81C9EB0002524442F00102196857
:1049C000BC425144C7F808901960C9F80420DFF8C8
:1049D000A0A016D0B8F10F0F40F2EF806268A8F1E6
:1049E0000C0323F0070302F00102E0184FF0050E5C
:1049F0001A430F2B6260C0F804E0C0F808E000F230
:104A00000A811C4BBC681A68914288BF19601A4B16
:104A10001A689142626888BF196022F003029542C9
:104A2000A2EB050301D80F2B04DC304600F024FA7A
:104A30000024B7E645F0010243F00103254462601B
:104A40003046BD6008346B6000F016FA204603B0B3
:104A5000BDE8F08F142869D9542800F29880280BFB
:104A60006E304100B2E600BFA0040020C008002064
:104A7000C4080020BC080020B8080020AC080020B2
:104A80005A0A042A55D9142A00F2A7805B324FEA49
:104A9000420C07EB8C0CDCF80810DFF8B88161459C
:104AA0007FD04A6822F00302934202D289688C4583
:104AB000F7D1CA687B68E260A1609460CC60C7E609
:104AC00045F0010742F001032544676030464D611F
:104AD0000D61C5F80CE0C5F808E06B60AA50083419
:104AE00000F0CAF95EE64B68B2E609F1010919F077
:104AF000030F0CF1080C7FF4BDAE2CE004F10803A9
:104B00006469A34208BF02303FF475AE3AE61C4622
:104B10001A445168DB6854F8085F41F001015160A4
:104B20003046EB609D6000F0A7F93BE65B3041004A
:104B30004CE69A0938324FEA420CAAE7BC42454B90
:104B40003FF40DAF9C68626822F0030267E7D8F873
:104B5000008098457CD110F0030FA8F1080300F104
:104B6000FF30F4D17B6823EA04037B6064009C423D
:104B70003FF6C9AE002C3FF4C6AE234248467FF450
:104B800075AE6400234200F10400FAD06EE6B0F581
:104B9000AA7F18D8E80B7730410017E64FF4805110
:104BA000FAE6D8F8043092104FF0010C0CFA02F239
:104BB0001343C8F804300A467DE70123C9F80430DE
:104BC0004C4600222BE740F2545398421CD8A80CC4
:104BD0007C304100FAE51032B3E6542A23D81A0B90
:104BE0006E324FEA420C54E7BC68626822F003025E
:104BF00015E7CBF30B0000287FF4B8AE4244BB6846
:104C000042F001025A60FCE6FC217E20DEE5012232
:104C10004FF0000AD3E604F108013046FFF718FC14
:104C2000DAF80010EDE6B2F5AA7F04D8DA0B773295
:104C30004FEA420C2DE740F254518A4204D89A0CB4
:104C40007C324FEA420C24E74FF0FC0C7E2220E736
:104C50007B688BE7A0040020830770B4C9B240D002
:104C6000541E002A3FD003788B4218BF431C05D145
:104C70001CE0ECB10278013C8A4217D013F0030F1C
:104C8000184603F10103F4D1032C14D884B103783E
:104C90008B420BD00519431C02E002788A4205D0F2
:104CA000AB42184603F10103F7D1002070BC7047F6
:104CB000204670BC7047024641EA012646EA064695
:104CC000136810467340A3F1013525EA030313F07E
:104CD000803F02F10402D9D1043C032C1046EFD8E6
:104CE000D4E71446D0E71046E0E700BF844641EA27
:104CF000000313F0030349D1403A23D30B68036048
:104D00004B6843608B688360CB68C3600B69036149
:104D10004B6943618B698361CB69C3610B6A036231
:104D20004B6A43628B6A8362CB6AC3620B6B036319
:104D30004B6B43638B6B8363CB6BC36340304031FE
:104D4000403ADBD230320BD30B6803604B684360D0
:104D50008B688360CB68C36010301031103AF3D297
:104D60000C3205D351F8043B40F8043B043AF9D225
:104D7000043208D0D2071CBF11F8013B00F8013BF8
:104D800001D30B8803806046704700BF082A13D305
:104D90008B07B1D010F00303AED0C3F10403D21AD5
:104DA000DB071CBF11F8013B00F8013BA4D331F82D
:104DB000023B20F8023B9FE7043AD9D3013A11F8AD
:104DC000013B00F8013BF9D20B7803704B7843703C
:104DD0008B7883706046704770B4840746D0541E49
:104DE000002A41D0CDB2034602E0621EE4B314466D
:104DF00003F8015B9A07F8D1032C2ED9CDB245EA0E
:104E000005250F2C45EA054519D9264603F1100260
:104E1000103E0F2E42F8105C42F80C5C42F8085C21
:104E200042F8045C02F11002F2D8A4F1100222F060
:104E30000F0204F00F041032032C13440DD91E4648
:104E40002246043A032A46F8045BFAD8221F22F0CD
:104E500003020432134404F003042CB1C9B21C440D
:104E600003F8011BA342FBD170BC704714460346F4
:104E7000C2E700BF704700BF704700BFC26C70B58B
:104E800005460C4652B152F824308BB1196842F8ED
:104E90002410002218461A61DA6070BD2122042114
:104EA00000F0F4FBE86402460028ECD1002070BD5D
:104EB000012101FA04F6721D2846920000F0E6FB7B
:104EC00003460028F2D044608660E2E731B1C36C4B
:104ED0004A6853F82200086043F82210704700BF68
:104EE000F0B50C4605460E6983B001F1140E00279B
:104EF000DEF80010013788B2090C02FB003302FB18
:104F000001F198B201EB134300EB0341BE424EF8AE
:104F1000041B4FEA1343EBDC3BB1A268964207DA6D
:104F200004EB8602013653612661204603B0F0BDD2
:104F30006168284601310193FFF7A0FF0746226907
:104F400004F10C01023292000C30FFF7CFFEEA6C44
:104F50006168019B52F82100206042F821403C46E4
:104F6000DEE700BF030C1B04B3B90004102310F0EC
:104F70007F4F04BF0002083310F0704F04BF0001E0
:104F8000043310F0404F04BF80000233002807DBD9
:104F9000420003D4202070470023E8E7581C7047E4
:104FA00018467047036813F0070207D0D90720D4CA
:104FB0009A0720D49B0803600220704799B209B970
:104FC0001B0C102213F0FF0F04BF1B0A0832190735
:104FD00004BF1B090432990704BF9B080232D9079A
:104FE00004D45B0801D120207047013203601046D1
:104FF0007047002070475B0803600120704700BFC6
:1050000010B50C460121FFF739FF0122446102610E
:1050100010BD00BF2DE9F04F0E69156985B0AE4295
:105020000C469146C0F292802B4635461E46A36838
:1050300005EB060861689845C8BF0131FFF71EFF00
:1050400000F1140A0AEB880BDA45019005D25346A9
:10505000002143F8041B9B45FBD809F1140909EB17
:10506000860304F11402994502EB850C59D2CDF860
:1050700008B0CDF80C809B46904659F8047B1FFA87
:1050800087FEBEF1000F1FD047465646002100E0C4
:105090000646304657F8045B3468ABB2A2B20EFB4A
:1050A00003222D0C240C0EFB0544531804EB134172
:1050B0009AB242EA0142BC454FEA114140F8042B42
:1050C000E6D8716059F8047C3F0C22D0DAF8003041
:1050D000002255461E464046964600E025462C4690
:1050E0000288360C07FB026699B206EB0E0241EA13
:1050F000024344F8043B50F8041B6E68090CB3B239
:1051000007FB0131844501EB12434FEA134EE5D80A
:105110006B60CB450AF1040AAFD8DDF808B0DDF8C2
:105120000C80B8F1000F0BDD5BF8043CABF1040B15
:105130001BB105E05BF8043D13B9B8F10108F9D1E2
:105140000198C0F8108005B0BDE8F08F144689467C
:105150006DE700BF12F003032DE9F0411446074646
:105160000E462DD1A4101CD0BD6C95B3E3074FF0B3
:10517000000806D4641014D02868A8B10546E307D7
:10518000F8D5384631462A46FFF744FFB6B1726873
:10519000FB6C641053F82210316043F8226006461D
:1051A000EAD13046BDE8F08129462A463846FFF765
:1051B00031FF2860C0F800800546E0E70646D9E7E1
:1051C0000B4A013B52F823200023FFF789FE0646D5
:1051D000C8E701213846FFF751FE40F27121012254
:1051E0000023416102610546B8640360BEE700BF69
:1051F000A46900082DE9F0470F694FEA62198B682E
:105200004F447D1C9D420E4614468046496804DD8D
:105210005B009D4201F10101FADC4046FFF72EFEE2
:10522000B9F1000F00F1140109DD00239E460A4682
:1052300001334B4542F804EBFAD101EB83013269AB
:1052400006F1140303EB820E14F01F0222D0C2F108
:1052500020094FF0000A1C688C4694404AEA040476
:1052600041F8044B53F8044B9E4524FA09FAF2D84E
:10527000CCF804A0BAF1000F00D0BD1CD8F84C3017
:105280007268013D53F822100561316043F82260D5
:10529000BDE8F087043953F8042B9E4541F8042FEC
:1052A000F9D8EBE702690B69D21A13D19B001430CD
:1052B0001431194410B4034401E098420CD253F85D
:1052C000044D51F8042D9442F7D009D301205DF824
:1052D000044B70471046704700205DF8044B704740
:1052E0004FF0FF305DF8044B704700BF2DE9F047E9
:1052F0000C460546114620469146FFF7D3FF061E91
:105300005DD056DB4FF0000A28466168FFF7B6FD16
:1053100009F1140380461E462769D9F8102004F1CC
:10532000140E7546C0F80CA000F114040EEB870EA5
:1053300003EB820C4FF0000A55F8042B56F8041BBF
:1053400090B200EB0A0388B2090C1B1AC1EB12429F
:1053500002EB23429BB243EA0243B44544F8043BC8
:105360004FEA224AA946E7D8AE45264615D959F84C
:10537000040B83B25344000C00EB23419BB243EA7D
:105380000143CE4544F8043B4FEA214AEFD8ED43B0
:10539000754425F0030404343444043C23B954F820
:1053A000043D013F002BFAD04046C8F81070BDE81C
:1053B000F08723464FF0010A4C469946A4E7284659
:1053C0003146FFF75BFD012346610361BDE8F087CD
:1053D000F0B5012183B01C46C3F30A551646FFF70A
:1053E0004DFDC4F3130407460DB144F48014019439
:1053F00006B302A840F8086DFFF7D4FD002830D1AD
:105400009DE80C007A61002B14BF02240124BB61CB
:105410003C61D5B9089A07EB8403A0F232401060D2
:105420001869FFF79FFD099BC0EB441018603846D0
:1054300003B0F0BD01A8FFF7B5FD019B01221446A2
:1054400020303A617B61002DE4D0A5F23343089A05
:1054500003441360099BC0F135001860384603B05F
:10546000F0BD019BC0F12001009A03FA01F10A434B
:10547000C34001937A61C6E710B431F0004408D00C
:10548000114BA1F580129A4208D804205DF8044B14
:10549000704718B902205DF8044B704701F1FF41D5
:1054A000094B01F5E0019942EFD9B4F5801F01D213
:1054B0000320EBE7054B9C4201D00020E6E7B0FA61
:1054C00080F04009E2E700BFFFFFDF7F0000F07FD0
:1054D00038B5074C0023054608462360FBF770FCEF
:1054E000431C00D038BD2368002BFBD02B6038BD97
:1054F0000809002010B50C46B1F90E1000F0E2FBCF
:10550000002803DB236D0344236510BDA38923F426
:105510008053A38110BD00BF2DE9F0410C4689895D
:105520001D46CB051646074606D5B4F90E100022D7
:10553000022300F04FFBA18921F48051A18138465C
:10554000B4F90E1032462B46BDE8F04100F08AB89F
:1055500010B50C46B1F90E1000F03CFBA389421CBB
:105560000EBF23F4805343F480532065A38110BD04
:10557000B1F90E1000F0BAB820F0030110F00300EA
:10558000C0F1000051F8043B00F1040C4FEACC0CD0
:105590006FF000021CBF22FA0CF213434FF0010C13
:1055A0004CEA0C2C4CEA0C4CA3EB0C0222EA030252
:1055B00012EACC1204BF51F8043B0430F4D0C2F11B
:1055C000000102EA0102B2FA82F2C2F11F0200EB0C
:1055D000D20070474B6E2DE9F0479C040F4692466F
:1055E0002BD59368126833B3804602F1080919E994
:1055F0006000B60817D0043D002401E0A64210D098
:10560000404655F8041F3A4600F01CF9431C04F1CB
:105610000104F3D10023CAF80830CAF80430BDE809
:10562000F087DAF80830A3EB8603CAF8083009F1EE
:105630000809002BDBD10020ECE700F029F900235A
:10564000CAF80830CAF80430BDE8F087936810B48F
:105650001BB15DF8044BFFF7BDBF184653605DF802
:10566000044B704770B5084C0646002508461146A5
:105670001A462560FBF708FC431C00D070BD236868
:10568000002BFBD0336070BD0809002010B502FB71
:1056900001F1FFF75BF8044668B150F8042C22F0E2
:1056A0000302043A242A18D8132A06D803460022F3
:1056B0001A605A609A60204610BD00231B2A0360BE
:1056C00043600FD9242A8360C36005BF036143612F
:1056D00000F1100300F11803E9E70021FFF77CFB5C
:1056E000204610BD00F10803E1E700BF38B5074CC4
:1056F0000023054608462360FBF782FB431C00D0CD
:1057000038BD2368002BFBD02B6038BD0809002072
:1057100000293DD070B505460C4608B1836B7BB3BC
:10572000B4F90C300BB9002070BD28462146FEF7B5
:10573000FFFCE36A064633B12846E1699847002832
:10574000B8BF4FF0FF36A3891B061CD4216B41B1B3
:1057500004F14003994202D02846FEF779FE002367
:105760002363616C21B12846FEF772FE0023636457
:10577000FEF71CFE0023A381FEF71AFE304670BD23
:10578000FEF70EFECCE728462169FEF761FEDDE755
:10579000002070472DE9F04182B007460E461446BE
:1057A000FEF75AFF012840D0384601A9324604F1DD
:1057B0005C0300F0DFFCB0F1FF3F80462ED00028F4
:1057C0003BD09DF80410002509E023681970236878
:1057D000013323600135A8452FD901AB595DA3687A
:1057E000013B002BA360F0DAA269934206DB236839
:1057F00019702368197801330A29EAD138462246FC
:1058000000F064FCA0F1FF30B0FA80F040090028FD
:10581000E0D04FF0FF3002B0BDE8F081A38943F043
:105820004003A38102B0BDE8F081731EFE2BBBD8FC
:10583000F1B280468DF80410C5E7304602B0BDE8ED
:10584000F08100BF938913F4005F0BD110B4546E44
:1058500043F4005344F40054546693815DF8044BC0
:10586000FFF798BFFFF796BF38B5084C00230546F1
:10587000084611462360FBF7CFFA431C00D038BD21
:105880002368002BFBD02B6038BD00BF0809002027
:105890009368002B00F0B1802DE9F04FB1F80CE0D7
:1058A00083B01EF0080F0C468146164628D00B69BF
:1058B00033B30EF002081FFA88F0356880B34FF05A
:1058C000000BD846DFF8E4A2B8F1000F00F08F809B
:1058D000D0454346484628BF5346E1695A46676A61
:1058E000B847002840F3A880B36883441B1AC0EB74
:1058F0000808B360002BE7D1002003B0BDE8F08FAB
:1059000048462146FDF7C6FB002840F04681B4F822
:105910000CE035680EF002081FFA88F00028CED19E
:105920001EF0010B40F09180D846B8F1000F58D01E
:105930001EF4007FA76862D0B845BA46C0F0C280A6
:105940001EF4906F00F0C08067692169236807EB3F
:1059500047075B1A07EBD777581C7F1040448742F4
:105960003A463CBF07463A461EF4806F009300F06B
:10597000FB8011464846FEF7E9FE009B8246002860
:1059800000F00E811A4621690093FFF7AFF9A28952
:10599000009B22F4906242F08002A2810AEB030095
:1059A000C4F810A0FB1A6761C24647462060A36096
:1059B0005246594600F022F9A0682268C01BA06038
:1059C000404602EB0A032360B36883441B1AC0EB12
:1059D0000808B360002B8FD0B4F80CE0B8F1000FCA
:1059E000A6D1D5F800B0D5F8048008359DE7D5F8E4
:1059F00000B0D5F80480083566E7002070472068BD
:105A00002369984203D86269904580F085804745B4
:105A100028BF474659463A4600F0F0F8A368226886
:105A2000DB1B3A44A3602260002B49D14846214643
:105A3000FEF722FC002843D0A38943F040034FF037
:105A4000FF30A38103B0BDE8F08F804683468246D5
:105A50000090BAF1000F2BD0009B002B4FD0D04507
:105A6000434628BF5346206821691F468842D4F820
:105A700008E0626903D90EEB020C63455EDC9342D9
:105A800024DB1346676A4846E1695A46B847071E51
:105A9000D2DDB8EB070829D0B368BB44DB1BC7EBEA
:105AA0000A0AB360002B3FF427AFBAF1000FD3D13D
:105AB0000023D5F800B0D5F804A000930835C8E756
:105AC000384681E74746C246206871E71A4659467C
:105AD000019300F093F8A2682168019BB8EB0708D6
