:020000040800F2
:1000000030040020C9020008250300082503000869
:100010002503000825030008250300080000000050
:1000200000000000000000000000000025030008A0
:10003000250300080000000025030008610A0008ED
:1000400025030008250300082503000825030008F0
:1000500025030008250300082503000825030008E0
:1000600025030008250300082503000825030008D0
:1000700025030008250300082503000825030008C0
:1000800025030008250300082503000825030008B0
:1000900025030008250300082503000825030008A0
:1000A0002503000825030008250300082503000890
:1000B000250300081508000825030008250300088B
:1000C0002503000825030008250300082503000870
:1000D00025030008B10A00082503000825030008CD
:1000E0002503000825030008250300082503000850
:1000F0002503000825030008250300082503000840
:10010000250300082503000825030008250300082F
:10011000250300082503000825030008250300081F
:10012000250300082503000825030008250300080F
:100130005FF808F180B483B000AF78600B467B8035
:100140007B88DB439AB27B681A820C37BD465DF828
:10015000047B704780B500AF154A154B1B6843F010
:10016000010313601249124B5A68124B13404B6043
:100170000F4A0F4B1B6823F0847323F48033136002
:100180000B4A0B4B1B6823F480231360084A084B6F
:100190005B6823F4FE035360054B4FF41F029A6023
:1001A00000F00CF8044B4FF000629A6080BD00BF75
:1001B000001002400000FFF800ED00E080B500AF45
:1001C00000F002F880BD00BF80B483B000AF002310
:1001D0007B6000233B603A4A394B1B6843F4803311
:1001E0001360374B1B6803F400333B607B680133BB
:1001F0007B603B68002B03D17B68B3F5A06FF0D127
:100200002F4B1B6803F40033002B02D001233B600B
:1002100001E000233B603B68012B4BD1294A294B6D
:100220001B6843F010031360264A264B1B6823F01B
:1002300003031360234A234B1B6843F0020313603C
:100240001F4A1F4B5B6853601D4A1D4B5B68536020
:100250001B4A1B4B5B6843F480635360184A184B7E
:100260005B6823F47C135360154A154B5B6843F4B9
:10027000E8135360124A124B1B6843F080731360FB
:1002800000BF0F4B1B6803F00073002BF9D00C4A22
:100290000B4B5B6823F003035360094A084B5B6810
:1002A00043F00203536000BF054B5B6803F00C038F
:1002B000082BF9D10C37BD465DF8047B704700BFB1
:1002C000001002400020024080B582B000AF104B09
:1002D0007B60104B3B6007E03B681A1D3A607A6810
:1002E000111D796012681A603B680B4A9342F3D380
:1002F0000A480B494FF000028842B8BF40F8042B6F
:10030000FADBFFF727FF00F007F90837BD4680BD8D
:10031000E80A000800000020180000201800002053
:100320003000002080B400AFFEE700BF80B489B089
:1003300000AF786039600023FB6100233B6100233C
:10034000BB610023FB6000237B610023BB603B6833
:10035000DB7803F00F03FB613B68DB7803F01003ED
:10036000002B05D03B689B781A46FB691343FB6161
:100370003B681B88DBB2002B44D07B681B687B6129
:100380000023BB6138E0BB69012202FA03F3FB6082
:100390003B681B881A46FB6813403B613A69FB685F
:1003A0009A4226D1BB699B00FB60FB680F2202FAD0
:1003B00003F3BB60BB68DB437A6913407B61FB6876
:1003C000FA6902FA03F37A6913437B613B68DB78CD
:1003D000282B05D1BB6901229A407B685A6108E04D
:1003E0003B68DB78482B04D1BB6901229A407B68CB
:1003F0001A61BB690133BB61BB69072BC3D97B6839
:100400007A691A603B681B88FF2B4AD97B685B6856
:100410007B610023BB613EE0BB6908331A460123C0
:100420009340FB603B681B881A46FB6813403B61A6
:100430003A69FB689A422BD1BB699B00FB60FB6861
:100440000F2202FA03F3BB60BB68DB437A691340F7
:100450007B61FB68FA6902FA03F37A6913437B61F3
:100460003B68DB78282B07D1BB6908331A46012388
:1004700003FA02F27B685A613B68DB78482B07D1AC
:10048000BB6908331A46012303FA02F27B681A613A
:10049000BB690133BB61BB69072BBDD97B687A6936
:1004A0005A602437BD465DF8047B704780B485B040
:1004B00000AF78600B467B800023FB737B689A68F3
:1004C0007B881340002B02D00123FB7301E0002343
:1004D000FB73FB7B18461437BD465DF8047B704701
:1004E00080B483B000AF78600B467B807A887B68ED
:1004F0001A610C37BD465DF8047B704780B483B049
:1005000000AF78600B467B807A887B685A610C3735
:10051000BD465DF8047B704780B584B000AF002312
:10052000FB600023BB6000237B6000233B60FFF780
:1005300011FE00F071FA00F079F900F0D9F900F03D
:10054000EFF90346002B14D14FF4967000F074FAC3
:10055000FB680133FB60FB68012B02D1402000F0F7
:10056000A7F9FB68022B04D1402000F0B1F9002369
:10057000FB6000F0E1F90346002B14D14FF49670B4
:1005800000F05AFABB680133BB60BB68012B02D193
:10059000802000F08DF9BB68022B04D1802000F090
:1005A00097F90023BB6000F0D3F90346002B16D166
:1005B0004FF4967000F040FA7B6801337B607B68F3
:1005C000012B03D14FF4005000F052F97B68022B4D
:1005D00005D14FF4005000F05BF900237B6000F080
:1005E000C3F90346002B14D14FF4967000F024FA9F
:1005F0003B6801333B603B68012B02D1402000F097
:1006000037F93B68022B04D1402000F041F9002368
:100610003B6094E780B483B000AF78600B46FB701A
:10062000FB78002B06D00949084B9A697B68134375
:100630008B6106E00549054B9A697B68DB431340F3
:100640008B610C37BD465DF8047B7047001002409B
:1006500080B483B000AF78600B467B807B88C3F3A7
:1006600008039AB27B689A800C37BD465DF8047B1C
:10067000704700BF80B483B000AF78607B689B8810
:100680009BB2C3F308039BB218460C37BD465DF816
:10069000047B704780B485B000AF78600B467B80E8
:1006A0000023FB737B681B889AB27B8813409BB244
:1006B000002B02D00123FB7301E00023FB73FB7BC3
:1006C00018461437BD465DF8047B704780B487B088
:1006D00000AF78600B467B800023FB6000237B61CA
:1006E0000023BB600023FB747B88DBB25B09DBB2B9
:1006F000BB607B8803F01F037B617B69012202FAE8
:1007000003F37B61BB68012B07D17B689B899BB29C
:100710001A467B6913407B6111E0BB68022B07D14D
:100720007B681B8A9BB21A467B6913407B6106E09B
:100730007B689B8A9BB21A467B6913407B617B88EE
:100740001B0A9BB2FB60FB68012202FA03F3FB6009
:100750007B681B889BB21A46FB681340FB607B6971
:10076000002B05D0FB68002B02D00123FB7401E0B5
:100770000023FB74FB7C18461C37BD465DF8047BE8
:10078000704700BF80B483B000AF0123FB71FB79D9
:1007900018460C37BD465DF8047B704780B582B0C3
:1007A00000AF194B1B68BB80BB88002B05D0BB88F2
:1007B000013BBB80BB88144A1360144B1B68BB8091
:1007C000BB88002B05D0BB88013BBB80BB880F4A90
:1007D00013600F4B1B78FB71FB7923F00403FB7153
:1007E000FFF7D0FF0346002B04D0FB7923F0020370
:1007F000FB7103E0FB7943F00303FB71044AFB79CF
:1008000013700837BD4680BD180000201C00002072
:100810001400002080B500AF03480121FFF78AFCD7
:10082000FFF7BCFF80BD00BF0004004080B500AFF3
:1008300030200121FFF7EEFE0A4BC0221A80094B3F
:100840001022DA70074B03229A7007480549FFF718
:100850006DFD044B4FF401521A8004480149FFF723
:1008600065FD80BD280000200010014000140140FB
:1008700080B582B000AF0346FB80FB880348194671
:10088000FFF72EFE0837BD4680BD00BF00140140B3
:1008900080B582B000AF0346FB80FB880348194651
:1008A000FFF72CFE0837BD4680BD00BF0014014095
:1008B00080B582B000AF0346FB80FB880348194631
:1008C000FFF70EFE0837BD4680BD00BF0010014097
:1008D00080B582B000AF0346FB80FB880348194611
:1008E000FFF70CFE0837BD4680BD00BF0010014079
:1008F00080B500AF40200121FFF78CFE064B3C2263
:100900001A80054B4822DA70034B03229A70034881
:100910000149FFF70BFD80BD2400002000180140B5
:1009200080B500AF03482021FFF7C0FD03461846FD
:1009300080BD00BF0018014080B500AF0348102102
:10094000FFF7B4FD0346184680BD00BF0018014004
:1009500080B500AF03480821FFF7A8FD03461846FD
:1009600080BD00BF0018014080B500AF03480421DE
:10097000FFF79CFD0346184680BD00BF00180140EC
:1009800080B483B000AF03463960FB7197F907303C
:10099000002B0BDA0D49FB7903F00F03043B3A6897
:1009A000D2B21201D2B20B441A7609E0084997F983
:1009B00007303A68D2B21201D2B20B4483F8002356
:1009C0000C37BD465DF8047B704700BF00ED00E0CA
:1009D00000E100E080B582B000AF78607B68B3F1E1
:1009E000807F01D3012311E00A4A7B6823F07F4313
:1009F000013B53604FF0FF300F21FFF7C1FF054B64
:100A000000229A60034B07221A6000231846083719
:100A1000BD4680BD10E000E080B500AF044B1B6810
:100A2000044AA2FB03239B091846FFF7D3FF80BDAE
:100A300000000020D34D621080B483B000AF786016
:100A40007B68064A136000BF044B1B68002BFBD178
:100A50000C37BD465DF8047B704700BF2C000020BA
:100A600080B400AF064B1B68002B04D0044B1B68FE
:100A7000013B034A1360BD465DF8047B704700BF2D
:100A80002C00002080B582B000AF78600B467B80E0
:100A900000BF78688021FFF7FDFD0346002BF8D0EA
:100AA0007B8878681946FFF7D3FD0837BD4680BDBF
:100AB00080B582B000AF0B4840F22551FFF706FE2B
:100AC0000346002B0AD00748FFF7D4FD0346FB710D
:100AD000FB799BB203481946FFF7D4FF0837BD46A0
:080AE00080BD00BF0038014099
:100AE80000A24A0400000000000000000102030404
:080AF8000607080901000000D7
:0400000508000000EF
:00000001FF
