:020000040800F2
:1000000068060020DD0400083905000839050008ED
:10001000390500083905000839050008000000000E
:10002000000000000000000000000000390500088A
:100030003905000800000000390500085D4000088F
:100040003905000839050008390500083905000898
:100050003905000839050008390500083905000888
:100060003905000839050008390500083905000878
:100070003905000839050008390500083905000868
:100080003905000839050008390500083905000858
:100090003905000839050008390500083905000848
:1000A0003905000839050008390500083905000838
:1000B0003905000829190008390500083905000824
:1000C0003905000839050008390500083905000818
:1000D00039050008AD400008390500083905000859
:1000E00039050008390500083905000839050008F8
:1000F00039050008390500083905000839050008E8
:1001000039050008390500083905000839050008D7
:1001100039050008390500083905000839050008C7
:1001200039050008390500083905000839050008B7
:100130005FF808F180B584B000AF0346FB7100237F
:10014000FB7300BF0F48022103F06CFF0346002B36
:10015000F8D0FB799BB20B48194603F047FF00BF6C
:100160000848012103F05EFF0346002BF8D0054844
:1001700003F04AFF0346FB73FB7B18461037BD466E
:1001800080BD00BF0038004080B485B000AF78600B
:1001900039600023FB817B681B88FB817B682E4ACA
:1001A000934213D07B682D4A93420FD07B68B3F102
:1001B000804F0BD07B682A4A934207D07B68294A3C
:1001C000934203D07B68284A934208D1FB8923F0ED
:1001D0007003FB813B685A88FB891343FB817B6872
:1001E000224A93420CD07B68214A934208D0FB8973
:1001F00023F44073FB813B68DA88FB891343FB815E
:100200007B68FA891A803B689A887B689A853B6884
:100210001A887B681A857B680F4A93420FD07B68E7
:100220000E4A93420BD07B68124A934207D07B68F8
:10023000114A934203D07B68104A934204D13B6831
:100240001B7A9AB27B681A867B6801229A821437DD
:10025000BD465DF8047B7047002C0140003401402E
:100260000004004000080040000C00400010004066
:10027000001400400040014000440140004801409B
:1002800080B483B000AF78600B46FB70FB78002B26
:1002900008D07B681B889BB243F001039AB27B684D
:1002A0001A8007E07B681B889BB223F001039AB297
:1002B0007B681A800C37BD465DF8047B704700BF31
:1002C00080B483B000AF78600B467B8013467B70B0
:1002D0007B78002B08D07B689B899AB27B8813437C
:1002E0009AB27B689A8109E07B689B899AB27B8885
:1002F000DB439BB213409AB27B689A810C37BD46B0
:100300005DF8047B704700BF80B483B000AF7860B5
:100310000B46FB70FB78002B08D07B681B889BB2D8
:1003200043F080039AB27B681A8007E07B681B88E1
:100330009BB223F080039AB27B681A800C37BD46CB
:100340005DF8047B704700BF80B483B000AF786075
:100350000B467B807B88DB439AB27B681A820C3722
:10036000BD465DF8047B704780B500AF154A154B5C
:100370001B6843F0010313601249124B5A68124B79
:1003800013404B600F4A0F4B1B6823F0847323F418
:10039000803313600B4A0B4B1B6823F480231360DC
:1003A000084A084B5B6823F4FE035360054B4FF487
:1003B0001F029A6000F00CF8044B4FF000629A6044
:1003C00080BD00BF001002400000FFF800ED00E01B
:1003D00080B500AF00F002F880BD00BF80B483B0EC
:1003E00000AF00237B6000233B603A4A394B1B6817
:1003F00043F480331360374B1B6803F400333B60D6
:100400007B6801337B603B68002B03D17B68B3F5CD
:10041000A06FF0D12F4B1B6803F40033002B02D0E8
:1004200001233B6001E000233B603B68012B4BD183
:10043000294A294B1B6843F010031360264A264BB8
:100440001B6823F003031360234A234B1B6843F00C
:10045000020313601F4A1F4B5B6853601D4A1D4B0C
:100460005B6853601B4A1B4B5B6843F480635360BB
:10047000184A184B5B6823F47C135360154A154BDC
:100480005B6843F4E8135360124A124B1B6843F055
:100490008073136000BF0F4B1B6803F00073002BC9
:1004A000F9D00C4A0B4B5B6823F003035360094AF5
:1004B000084B5B6843F00203536000BF054B5B6869
:1004C00003F00C03082BF9D10C37BD465DF8047B13
:1004D000704700BF001002400020024080B582B08B
:1004E00000AF104B7B60104B3B6007E03B681A1D70
:1004F0003A607A68111D796012681A603B680B4A8D
:100500009342F3D30A480B494FF000028842B8BF28
:1005100040F8042BFADBFFF727FF00F01DFA08373D
:10052000BD4680BDA8410008000000200400002056
:10053000040000206402002080B400AFFEE700BF8A
:1005400080B584B000AF0346FB71FB79012B17D057
:10055000022B02D0002B0DD01FE001F04FFAB86043
:10056000BB68002B02D10023FB7301E00323FB7364
:10057000FB7B13E000F084FD0346FB73FB7B0DE087
:1005800001F0ECF9B860BB68002B02D10023FB73CB
:1005900001E00323FB73FB7B00E0012318461037C7
:1005A000BD4680BD80B584B000AF0346FB71FB79CA
:1005B000012B17D0022B02D0002B0DD01FE001F031
:1005C0000FFAB860BB68002B02D10023FB7301E077
:1005D0000123FB73FB7B13E000F07AFC0346FB7303
:1005E000FB7B0DE001F0ACF9B860BB68002B02D1D9
:1005F0000023FB7301E00123FB73FB7B00E001237D
:1006000018461037BD4680BD80B586B000AFB960D2
:100610007A603B600346FB73FB7B012B1FD0022BF0
:1006200002D0002B12D02CE03B68DBB2B8687968AE
:100630001A4601F0F1F938613B69002B02D1002321
:10064000FB7501E00123FB75FB7D1BE0B868796851
:100650003A6800F021FD0346FB75FB7D12E03B6824
:10066000DBB2B86879681A4601F086F938613B69EF
:10067000002B02D10023FB7501E00123FB75FB7DFC
:1006800000E0042318461837BD4680BD80B586B00B
:1006900000AFB9607A603B600346FB73FB7B012BC4
:1006A0001FD0022B02D0002B12D02CE03B68DBB213
:1006B000B86879681A4601F0C1F938613B69002BC6
:1006C00002D10023FB7501E00123FB75FB7D1BE0DC
:1006D000B86879683A6800F03FFD0346FB75FB7D1A
:1006E00012E03B68DBB2B86879681A4601F056F947
:1006F00038613B69002B02D10023FB7501E0012327
:10070000FB75FB7D00E0042318461837BD4680BD0D
:1007100080B400AF024B1846BD465DF8047B7047BD
:10072000C0B3493480B584B000AF03463A60FB7172
:100730000B46BB71FB79012B1DD0022B02D0002B85
:1007400010D028E0BB791846396801F089F9B86003
:10075000BB68002B02D10023FB7301E00123FB7374
:10076000FB7B19E0BB791846396800F06BFD034646
:10077000FB73FB7B10E0BB791846396801F020F968
:10078000B860BB68002B02D10023FB7301E001239A
:10079000FB73FB7B00E0042318461037BD4680BD89
:1007A00080B489B000AF786039600023FB6100231A
:1007B0003B610023BB610023FB6000237B610023BE
:1007C000BB603B68DB7803F00F03FB613B68DB78C1
:1007D00003F01003002B05D03B689B781A46FB6999
:1007E0001343FB613B681B88DBB2002B44D07B6862
:1007F0001B687B610023BB6138E0BB69012202FA00
:1008000003F3FB603B681B881A46FB6813403B619F
:100810003A69FB689A4226D1BB699B00FB60FB6882
:100820000F2202FA03F3BB60BB68DB437A69134013
:100830007B61FB68FA6902FA03F37A6913437B610F
:100840003B68DB78282B05D1BB6901229A407B6885
:100850005A6108E03B68DB78482B04D1BB69012270
:100860009A407B681A61BB690133BB61BB69072B86
:10087000C3D97B687A691A603B681B88FF2B4AD909
:100880007B685B687B610023BB613EE0BB6908332A
:100890001A4601239340FB603B681B881A46FB689D
:1008A00013403B613A69FB689A422BD1BB699B00BC
:1008B000FB60FB680F2202FA03F3BB60BB68DB43FB
:1008C0007A6913407B61FB68FA6902FA03F37A697B
:1008D00013437B613B68DB78282B07D1BB69083366
:1008E0001A46012303FA02F27B685A613B68DB78FF
:1008F000482B07D1BB6908331A46012303FA02F2D9
:100900007B681A61BB690133BB61BB69072BBDD929
:100910007B687A695A602437BD465DF8047B70476E
:1009200080B483B000AF78600B467B807A887B68A8
:100930001A610C37BD465DF8047B704780B483B004
:1009400000AF78600B467B807A887B685A610C37F1
:10095000BD465DF8047B704780B5ADF50A7D00AFFC
:100960000023C7F82432FFF7FFFC03F0B9FA00F0C8
:1009700053F800F0A7F8D7F82432002B3ED100201E
:1009800000F0A6F80346002B38D1002000F0BEF896
:100990000346002B2ED11A484021FFF7CFFF1948FC
:1009A0008021FFF7BDFF3B4618461749032200F0A0
:1009B00009F90346002B19D10123C7F82432114845
:1009C0004021FFF7ADFF3B461846104900F068F99B
:1009D0003B4618460E4900F063F93B4618460D4960
:1009E00000F05EF93B46184600F040F9002000F0A8
:1009F000C7F803E002484021FFF792FFBBE700BFC2
:100A00000014014000100140E4400008F0400008DC
:100A1000044100080C41000880B500AF012001210D
:100A200000F05EF94FF48040012100F077F90820D2
:100A3000012100F055F91F4B4FF460421A801D4B05
:100A400003229A701B4B1822DA701B481949FFF7D2
:100A5000A7FE184B4FF480521A80164B03229A704F
:100A6000144B1022DA7014481249FFF799FE134B09
:100A700000221A80114B4FF482725A800F4B0022D1
:100A80009A800E4B0022DA800C4B00221A810B4B0D
:100A90004FF400725A81094B00229A81074B0022C1
:100AA000DA810748054903F03DFA0548012103F0C2
:100AB0007DFA80BD48020020000C01404C0200205D
:100AC0000038004080B500AF00F0E0F980BD00BF05
:100AD00080B584B000AF0346FB710123FB73002394
:100AE000BB73FB79002B03D100F0E4F90346BB7321
:100AF000BB7B012B02D10023FB7301E00123FB73BD
:100B0000FB7B18461037BD4680BD00BF80B586B060
:100B100000AF0346FB710223FB751323BB75FB7902
:100B2000002B06D113481449002202F00FFB0346A4
:100B3000BB75BB7D002B16D1FB79002B0AD107F1C9
:100B4000100207F10C030D4811461A4602F0F6FF99
:100B50000346BB75BB7D002B02D10023FB7504E06F
:100B60000323FB7501E00223FB75FB7D1846183754
:100B7000BD4680BD0400002010410008144100085B
:100B800080B584B000AF0346FB710223FB731323CF
:100B9000BB73FB79002B06D100200949002202F02B
:100BA000D5FA0346BB73BB7B002B02D10023FB733A
:100BB00001E00223FB73FB7B18461037BD4680BD66
:100BC0001041000880B586B000AFF860B9601346E8
:100BD000FB710523FB751323BB75FB79002B06D135
:100BE000F868B968012202F0F5FA0346BB75FB7993
:100BF000012B06D1F868B968022202F0EBFA03462D
:100C0000BB75FB79022B06D1F868B968122202F095
:100C1000E1FA0346BB75FB79032B06D1F868B96886
:100C20000A2202F0D7FA0346BB75BB7D002B15D113
:100C30000023FB75FB79012B02D0FB79022B0FD12E
:100C4000FB68DB68F868194602F040FE0346BB7596
:100C5000BB7D002B04D00823FB7501E00523FB7549
:100C6000FB7D18461837BD4680BD00BF80B584B0F7
:100C700000AF78600623FB731323BB73786802F020
:100C800009FE0346BB73BB7B002B02D10023FB7321
:100C900001E00623FB73FB7B18461037BD4680BD81
:100CA00080B584B000AF786039600723FB73002300
:100CB000BB603868796803F075F8B860BB68002BD2
:100CC00006DB0023FB730A20796803F037F801E0A4
:100CD0000723FB73FB7B18461037BD4680BD00BF62
:100CE00080B483B000AF78600B46FB70FB78002BBC
:100CF00006D00949084B9A697B6813438B6106E06B
:100D00000549054B9A697B68DB4313408B610C37BF
:100D1000BD465DF8047B70470010024080B483B08C
:100D200000AF78600B46FB70FB78002B06D00949BA
:100D3000084BDA697B681343CB6106E00549054B34
:100D4000DA697B68DB431340CB610C37BD465DF845
:100D5000047B70470010024080B483B000AF78601D
:100D60000B467B807B88C3F308039AB27B689A802A
:100D70000C37BD465DF8047B704700BF80B483B07C
:100D800000AF78607B689B889BB2C3F308039BB27B
:100D900018460C37BD465DF8047B704780B485B0BB
:100DA00000AF78600B467B800023FB737B681B8859
:100DB0009AB27B8813409BB2002B02D00123FB73B5
:100DC00001E00023FB73FB7B18461437BD465DF83A
:100DD000047B704780B487B000AF78600B467B809F
:100DE0000023FB6000237B610023BB600023FB74B6
:100DF0007B88DBB25B09DBB2BB607B8803F01F033F
:100E00007B617B69012202FA03F37B61BB68012BE2
:100E100007D17B689B899BB21A467B6913407B6133
:100E200011E0BB68022B07D17B681B8A9BB21A4674
:100E30007B6913407B6106E07B689B8A9BB21A4604
:100E40007B6913407B617B881B0A9BB2FB60FB685C
:100E5000012202FA03F3FB607B681B889BB21A46EF
:100E6000FB681340FB607B69002B05D0FB68002BFF
:100E700002D00123FB7401E00023FB74FB7C1846C5
:100E80001C37BD465DF8047B704700BF80B500AFDE
:100E900000F034FB00F054FB00F06CFB044B0A2222
:100EA0001A6000BF024B1B68002BFBD180BD00BF46
:100EB0003402002080B582B000AF0023FB7100F047
:100EC0009DFB0346FB71FB7918460837BD4680BD84
:100ED00090B583B000AF674B0A221A6000BF654B24
:100EE0001B68002BFBD1644B1B78DBB203F00203C1
:100EF000002B03D0604B1B78DBB2B7E000F04EFB59
:100F00000A23FB7105E0FF2000F084FBFB79013B25
:100F1000FB71FB79002BF6D100237B7100200021AF
:100F200000F056FC0346012B40F08780514B4FF4F4
:100F30007A721A6008204FF4D57100F049FC03461C
:100F4000012B4FD10023FB710DE0FC79FF2000F055
:100F500061FB03461A4607F10803234403F8082CF3
:100F6000FB790133FB71FB79032BEED9BB78012BA5
:100F700063D1FB78AA2B60D100BF3E4B1B68002BCE
:100F800007D0A9204FF0804100F022FC0346002B3F
:100F9000F3D1384B1B68002B4FD03A20002100F0D2
:100FA00017FC0346002B48D10023FB710DE0FC79B0
:100FB000FF2000F02FFB03461A4607F108032344E5
:100FC00003F8082CFB790133FB71FB79032BEED975
:100FD0003B7803F04003002B01D00C2300E00423F6
:100FE0007B712AE0A920002100F0F2FB0346012BCF
:100FF00004D802237B71A923BB7103E001237B7119
:101000000123BB7100BF1B4B1B68002B07D0BB79B2
:101010001846002100F0DCFB0346002BF3D1154BF2
:101020001B68002B07D010204FF4007100F0D0FB9C
:101030000346002B01D000237B71104A7B7913708B
:1010400000F04CFB7B79002B0AD000F0C1FA0A4B70
:101050001B78DBB223F00103DAB2074B1A7002E00F
:10106000054B01221A70044B1B78DBB218460C3773
:10107000BD4690BD34020020000000203C0200204C
:1010800080B400AF034B1B78DBB21846BD465DF859
:10109000047B70470000002080B584B000AFF8608A
:1010A000B9607A607B68002B01D104234CE0284BA7
:1010B0001B78DBB203F00103002B01D0032343E0D4
:1010C000244B1B7803F00803002B02D1BB685B02A2
:1010D000BB607B68012B11D11120B96800F078FB4F
:1010E0000346002B28D1F8684FF4007100F014FB80
:1010F0000346002B20D000237B601DE01220B9683E
:1011000000F066FB0346002B16D1F8684FF400711F
:1011100000F002FB0346002B00D109E0FB6803F559
:101120000073FB607B68013B7B607B68002BECD12C
:101130000C20002100F04CFB00F0D0FA7B68002B63
:1011400014BF01230023DBB218461037BD4680BD13
:10115000000000203C02002080B584B000AFF860A1
:10116000B9607A607B68002B01D1042362E0334BC5
:101170001B78DBB203F00103002B01D0032359E0FD
:101180002E4B1B78DBB203F00403002B01D00223AB
:1011900050E02B4B1B7803F00803002B02D1BB68F7
:1011A0005B02BB607B68012B10D11820B96800F08E
:1011B0000FFB0346002B35D1F868FE2100F0D6FA6C
:1011C0000346002B2ED000237B602BE01C4B1B78AA
:1011D00003F00603002B03D09720796800F0F8FA9B
:1011E0001920B96800F0F4FA0346002B1AD1F86808
:1011F000FC2100F0BBFA0346002B00D109E0FB689C
:1012000003F50073FB607B68013B7B607B68002B10
:10121000EDD10020FD2100F0A9FA0346002B01D1F9
:1012200001237B6000F05AFA7B68002B14BF012376
:101230000023DBB218461037BD4680BD00000020F9
:101240003C02002080B58CB000AF03463960FB71D2
:10125000A84B1B78DBB203F00103002B01D0032362
:1012600043E1012387F82F30FB79042B00F236810C
:1012700001A252F823F000BF8D120008A11200084D
:10128000DD1400084B1300083B14000800F02EFA90
:101290000346002B03D0002387F82F3021E120E103
:1012A0000920002100F094FA0346002B4CD107F1ED
:1012B0000C031846102100F02FFA0346002B43D0F0
:1012C0003B7B9B09DBB2012B11D17B7D1A463B7D19
:1012D0001B0213441A46FB7C03F03F031B04134418
:1012E00001333B623B6A9A023B681A6028E07B7CD0
:1012F00003F00F03DAB2BB7DDB09DBB21344DAB2D1
:101300007B7D03F00303DBB25B00DBB21344DBB293
:10131000023387F82E303B7D9B09DBB21A46FB7CFB
:101320009B001A44BB7C03F003039B02134401336C
:101330003B6297F82E30093B3A6A9A403B681A6044
:10134000002387F82F30CCE0CBE06B4B1B7803F009
:101350000403002B2FD08D20002100F039FA034622
:10136000002B69D1FF2000F055F907F10C03184656
:10137000102100F0D1F90346002B5DD0302387F80F
:101380002E3007E0FF2000F045F997F82E30013BA2
:1013900087F82E3097F82E30002BF3D1BB7D1B0938
:1013A000DBB21A46102303FA02F23B681A600023EC
:1013B00087F82F3095E00920002100F009FA034654
:1013C000002B39D107F10C031846102100F0A4F9C5
:1013D0000346002B30D0484B1B7803F00203002B50
:1013E00012D0BB7D03F03F035B00FA7DD209D2B27D
:1013F00013445A1C7B7E9B09DBB2013B02FA03F3C8
:101400001A463B681A6013E0BB7D03F07C039B1017
:101410009BB20133FA7D02F00302D200F97D490943
:10142000C9B20A44013202FB03F31A463B681A6050
:10143000002387F82F3054E053E02F4B1B7803F044
:101440000603002B00D14CE007F10C0333201946B2
:10145000FFF7F8FE0346002B00D042E03B7B9B09E0
:10146000DBB2002B05D1BB7D03F04003002B00D184
:1014700037E03B68FB61FB691B68BB62FB695B682B
:101480007B621D4B1B7803F00803002B05D1BB6A60
:101490005B02BB627B6A5B027B622020B96A00F060
:1014A00097F90346002B18D12120796A00F090F9B2
:1014B0000346002B11D12620002100F089F90346B4
:1014C000002B0AD147F2305000F0E8F80346002B19
:1014D00003D0002387F82F3003E002E0042387F8CD
:1014E0002F3000F0FBF897F82F3018463037BD4604
:1014F00080BD00BF000000203C02002080B584B009
:1015000000AF02200121FFF709FC40F283333B8149
:101510002723BB8000237B810023FB803B1D0748E2
:101520001946FEF731FE05480121FEF7EDFE03489E
:101530000121FEF7A5FE1037BD4680BD0004004026
:1015400080B582B000AF0A4801210122FEF7B8FE43
:101550001D233B7100237B710023BB710123FB71B1
:101560003B1D184602F05AFC0837BD4680BD00BF3F
:101570000004004080B500AF02484FF48051FFF7EF
:10158000CFF980BD000C014080B500AF02484FF498
:101590008051FFF7D3F980BD000C014080B483B0C7
:1015A00000AF0023FB80094B1B88FB80FB8823F0E6
:1015B0003803FB80FB8843F02803FB80034AFB8849
:1015C00013800C37BD465DF8047B7047003800403F
:1015D00080B483B000AF0023FB80074B1B88FB80E7
:1015E000FB8823F03803FB80034AFB8813800C3709
:1015F000BD465DF8047B70470038004080B483B07E
:1016000000AF0123FB71FB7918460C37BD465DF82E
:10161000047B704780B584B000AF0346FB710023A4
:10162000FB73FB791846FEF785FD0346FB73FB7BD6
:1016300018461037BD4680BD80B584B000AF7860D5
:101640003960FF20FEF776FD0346FB737B68FA7B6B
:101650001A707B6801337B603B68013B3B603B68F1
:10166000002BEED11037BD4680BD00BF80B584B0E1
:1016700000AF786039607B681B78FB73FB7B184692
:10168000FEF758FD7B6801337B603B68013B3B60A4
:101690003B68002BEFD11037BD4680BD80B584B0CC
:1016A00000AF78600C4A7B681360FF20FFF7B2FF41
:1016B0000346FB73FB7BFF2B03D0074B1B68002B00
:1016C000F3D1FB7BFF2B0CBF01230023DBB21846B9
:1016D0001037BD4680BD00BF3802002080B500AF86
:1016E000FFF748FFFF20FFF795FF80BD80B500AFF3
:1016F000FFF74AFFFF20FFF78DFF4FF4FA70FFF767
:10170000CDFF0346002B01D0012302E0FFF7E6FFE7
:101710000023184680BD00BF80B584B000AF78605C
:101720003960114BC8221A60FF20FFF773FF034690
:10173000FB73FB7BFF2B03D10B4B1B68002BF3D1FF
:10174000FB7BFE2B01D000230AE078683968FFF7A5
:1017500073FFFF20FFF75EFFFF20FFF75BFF012312
:1017600018461037BD4680BD3402002080B584B0D5
:1017700000AF78600B46FB704FF4FA70FFF78EFFF6
:101780000346002B01D100231EE0FB781846FFF72B
:1017900041FFFB78FD2B16D078684FF40071FFF7FE
:1017A00065FFFF20FFF736FFFF20FFF733FFFF2025
:1017B000FFF730FF0346FB73FB7B03F01F03052B92
:1017C00001D0002300E0012318461037BD4680BD3C
:1017D00080B584B000AF03463960FB71FB795BB222
:1017E000002B0EDAFB7903F07F03FB713720002119
:1017F000FFF7EEFF0346BB73BB7B012B01D9BB7B1D
:1018000051E0FB790C2B08D0FFF768FFFFF76EFF64
:101810000346002B01D1FF2345E0FB7943F0400351
:10182000DBB21846FFF7F6FE3B681B0EDBB218462C
:10183000FFF7F0FE3B681B0CDBB21846FFF7EAFE31
:101840003B681B0ADBB21846FFF7E4FE3B68DBB2DD
:101850001846FFF7DFFE0123FB73FB79002B01D154
:101860009523FB73FB79082B01D18723FB73FB7B4B
:101870001846FFF7CFFEFB790C2B02D1FF20FFF7B4
:10188000C9FE0A23FB73FF20FFF7C4FE0346BB73A8
:10189000BB7B5BB2002B05DAFB7B013BFB73FB7B65
:1018A000002BF0D1BB7B18461037BD4680BD00BF72
:1018B00080B582B000AF194B1B68BB80BB88002B82
:1018C00005D0BB88013BBB80BB88144A1360144B16
:1018D0001B68BB80BB88002B05D0BB88013BBB804D
:1018E000BB880F4A13600F4B1B78FB71FB7923F009
:1018F0000403FB71FFF782FE0346002B04D0FB7943
:1019000023F00203FB7103E0FB7943F00303FB7157
:10191000044AFB7913700837BD4680BD34020020AD
:10192000380200200000002080B500AF03480121EC
:10193000FEF70AFDFFF7BCFF80BD00BF00040040BA
:1019400080B483B000AF4FF0FF337B607B681846F4
:101950000C37BD465DF8047B704700BF80B483B090
:1019600000AF4FF0FF337B607B6818460C37BD46F5
:101970005DF8047B704700BF80B487B000AFF860AB
:10198000B9601346FB714FF0FF337B617B691846EA
:101990001C37BD465DF8047B704700BF80B487B03C
:1019A00000AFF860B9601346FB714FF0FF337B6105
:1019B0007B6918461C37BD465DF8047B704700BF45
:1019C00080B485B000AF03463960FB714FF0FF3340
:1019D000FB60FB6818461437BD465DF8047B704712
:1019E00080B483B000AF4FF0FF337B607B68184654
:1019F0000C37BD465DF8047B704700BF80B483B0F0
:101A000000AF4FF0FF337B607B6818460C37BD4654
:101A10005DF8047B704700BF80B487B000AFF8600A
:101A2000B9601346FB714FF0FF337B617B69184649
:101A30001C37BD465DF8047B704700BF80B487B09B
:101A400000AFF860B9601346FB714FF0FF337B6164
:101A50007B6918461C37BD465DF8047B704700BFA4
:101A600080B485B000AF03463960FB714FF0FF339F
:101A7000FB60FB6818461437BD465DF8047B704771
:101A800080B487B000AFF860B9607A60FB687B61B2
:101A9000BB683B6107E07B695A1C7A613A69511C5B
:101AA000396112781A707B685A1E7A60002BF2D165
:101AB0001C37BD465DF8047B704700BF80B487B01B
:101AC00000AFF860B9607A60FB687B6105E07B6914
:101AD0005A1C7A61BA68D2B21A707B685A1E7A6050
:101AE000002BF4D11C37BD465DF8047B704700BF66
:101AF00080B489B000AFF860B9607A60FB68FB61C0
:101B0000BB68BB6100237B6100BF7B685A1E7A60A3
:101B1000002B0DD0FB695A1CFA611B781946BB6972
:101B20005A1CBA611B78CB1A7B617B69002BECD005
:101B30007B6918462437BD465DF8047B704700BFBB
:101B400080B483B000AF7860396002E07B68013315
:101B50007B607B681B78002B05D07B681B781A465E
:101B60003B689A42F2D17B681B7818460C37BD4619
:101B70005DF8047B704700BF80B586B000AF786029
:101B80000023FB737B681B79002B36D07B68DB6AF4
:101B90007B617B685A787B683033104619467A69D6
:101BA0000123FEF773FD0346002B02D00123FB73D4
:101BB00023E07B6800221A717B681B6A7A69D21A5B
:101BC0007B689B699A4218D27B68DB783B6111E0A5
:101BD0007B689B697A6913447B617B685A787B6870
:101BE0003033104619467A690123FEF74FFD3B69F1
:101BF000013B3B613B69012BEAD8FB7B1846183758
:101C0000BD4680BD80B584B000AF786039600023E8
:101C1000FB737B68DA6A3B689A421CD07868FFF7EE
:101C2000ABFF0346FB73FB7B002B14D17B685A7818
:101C30007B683033104619463A680123FEF7E4FC0E
:101C40000346002B04D04FF0FF333B600123FB73AE
:101C50007B683A68DA62FB7B18461037BD4680BD68
:101C600080B584B000AF78607868FFF785FF0346E1
:101C7000FB73FB7B002B40F094807B681B78032B6D
:101C800040F083807B685B79012B7ED17B683033A9
:101C9000184600214FF40072FFF710FF7B685522B1
:101CA00083F82E227B68AA2283F82F227B68522297
:101CB00083F830207B68522283F831207B686122D0
:101CC00083F832207B68412283F833207B687222BC
:101CD00083F814227B68722283F815227B684122E4
:101CE00083F816227B68612283F817227B681B69C0
:101CF000DAB27B6883F818227B681B699BB21B0AE7
:101D00009BB2DAB27B6883F819227B681B691B0CD3
:101D1000DAB27B6883F81A227B681B691B0EDAB281
:101D20007B6883F81B227B68DB68DAB27B6883F808
:101D30001C227B68DB689BB21B0A9BB2DAB27B6811
:101D400083F81D227B68DB681B0CDAB27B6883F8A2
:101D50001E227B68DB681B0EDAB27B6883F81F22C9
:101D60007B68DB695A1C7B68DA627B6859787B6820
:101D700003F130027B68DB6A084611461A460123EC
:101D8000FEF784FC7B6800225A717B685B781846FA
:101D900000210022FEF7C6FC0346002B01D00123E0
:101DA000FB73FB7B18461037BD4680BD80B483B003
:101DB00000AF786039603B68023B3B607B685B69E1
:101DC0009A1E3B689A4201D8002308E07B689B7802
:101DD0001A463B6803FB02F27B689B6A1344184671
:101DE0000C37BD465DF8047B704700BF80B586B0F8
:101DF00000AF786039603B68012B04D97B685A6971
:101E00003B689A4202D801237B619DE04FF0FF338B
:101E10007B617B681B78022B48D0032B68D0012B99
:101E200040F090803B683B613B695B083A69134432
:101E30003B617B681A6A3B695B0A13447868194600
:101E4000FFF7E0FE0346002B00D07DE03B695A1C03
:101E50003A61C3F308037A68134493F83030FB60A7
:101E60007B681A6A3B695B0A134478681946FFF776
:101E7000C9FE0346002B00D066E03B69C3F30803AC
:101E80007A68134493F830301B021A46FB681343F8
:101E9000FB603B6803F00103002B02D0FB681B09C9
:101EA00002E0FB68C3F30B037B614DE07B681A6AB9
:101EB0003B681B0A134478681946FFF7A3FE0346E4
:101EC000002B00D040E03B685B0003F4FF7330332D
:101ED0007A681344BB60BB6801331B781B029AB25B
:101EE000BB681B789BB213439BB29BB27B612BE018
:101EF0007B681A6A3B68DB09134478681946FFF768
:101F000081FE0346002B00D01EE03B689B0003F4DB
:101F1000FE7330337A681344BB60BB6803331B78AD
:101F20001A06BB6802331B781B041343BA680132DC
:101F3000127812021343BA681278134323F07043E5
:101F40007B6101E001237B617B6918461837BD4640
:101F500080BD00BF80B588B000AFF860B9607A601E
:101F6000BB68012B04D9FB685A69BB689A4202D846
:101F70000223FB77E8E0FB681B78022B72D0032B6F
:101F800000F09780012B40F0DD80BB68BB61BB692E
:101F90005B08BA691344BB61FB681A6ABB695B0AD8
:101FA0001344F8681946FFF72DFE0346FB77FB7FC5
:101FB000002B00D0C8E0BB695A1CBA61C3F3080308
:101FC0003033FA6813447B61BB6803F00103002BD4
:101FD0000DD07B691B78DBB203F00F03DAB27B68AC
:101FE000DBB21B01DBB21343DBB2DBB201E07B6887
:101FF000DBB27A691370FB6801221A71FB681A6AF6
:10200000BB695B0A1344F8681946FFF7FBFD0346FA
:10201000FB77FB7F002B00D096E0BB69C3F308037E
:102020003033FA6813447B61BB6803F00103002B73
:1020300003D07B681B09DBB20EE07B691B78DBB247
:1020400023F00F03DAB27B681B0ADBB203F00F0345
:10205000DBB21343DBB2DBB27A691370FB68012297
:102060001A7171E0FB681A6ABB681B0A1344F868AE
:102070001946FFF7C7FD0346FB77FB7F002B00D017
:1020800062E0BB685B0003F4FF733033FA6813440B
:102090007B617B68DAB27B691A707B6901337A688D
:1020A00092B2120A92B2D2B21A70FB6801221A716D
:1020B0004AE0FB681A6ABB68DB091344F8681946F2
:1020C000FFF7A0FD0346FB77FB7F002B00D03BE032
:1020D000BB689B0003F4FE733033FA6813447B61E2
:1020E0007B6903331B781A067B6902331B781B0458
:1020F00013437A6901321278120213437A69127813
:10210000134303F070437A6813437B607B68DAB251
:102110007B691A707B6901337A6892B2120A92B2B3
:10212000D2B21A707B6902337A68120CD2B21A707A
:102130007B6903337A68120ED2B21A70FB680122EF
:102140001A7101E00223FB77FB7F18462037BD465A
:1021500080BD00BF80B584B000AF786039603B6857
:10216000012B04D97B685A693B689A4202D8022342
:10217000FB733BE00023FB7333E078683968FFF7BB
:1021800035FEB860BB68002B00D12FE0BB68012B87
:1021900002D10223FB7329E0BB68B3F1FF3F02D1F8
:1021A0000123FB7322E0786839680022FFF7D2FE32
:1021B0000346FB73FB7B002B00D017E07B681B6999
:1021C000B3F1FF3F0BD07B681B695A1C7B681A6117
:1021D0007B685B7943F00103DAB27B685A71BB68B4
:1021E0003B607B685A693B689A42C6D8FB7B1846BD
:1021F0001037BD4680BD00BF80B586B000AF7860A7
:1022000039603B68002B0DD17B68DB683B613B6923
:10221000002B04D07B685A693B699A421BD8012382
:102220003B6118E078683968FFF7E0FDB860BB688B
:10223000012B01D8012370E0BB68B3F1FF3F01D14E
:10224000BB686AE07B685A69BB689A4201D9BB687F
:1022500063E03B683B613B697B617B6901337B6188
:102260007B685A697B699A4207D802237B617A6945
:102270003B699A4201D900234FE078687969FFF7FA
:10228000B5FDB860BB68002B0CD100BF78687969D8
:102290006FF07042FFF75EFE0346FB73FB7B002B83
:1022A0001AD10FE0BB68B3F1FF3F02D0BB68012B2E
:1022B00001D1BB6831E07A693B699A4201D10023C0
:1022C0002BE0CAE73B68002B06D0786839687A694A
:1022D000FFF740FE0346FB73FB7B002B14D17B68AA
:1022E0007A69DA607B681B69B3F1FF3F14D07B68C1
:1022F0001B695A1E7B681A617B685B7943F0010396
:10230000DAB27B685A7107E0FB7B012B02D14FF0F8
:10231000FF3300E001237B617B6918461837BD4617
:1023200080BD00BF80B586B000AF786039603B6883
:102330009AB27B68DA807B689B687B617B69012B42
:1023400005D07B681B685A697B699A4201D80223D1
:1023500062E07B69002B08D17B681B681B78032B2C
:1023600003D17B681B685B6A7B617B69002B0DD1A5
:102370007B681B681B891A463B689A4201D8022376
:102380004AE07B681B685B6A3B612CE07B681B68EA
:102390009B781B01FB601BE07B681B681846796912
:1023A000FFF724FD78617B69B3F1FF3F01D1012381
:1023B00032E07B69012B05D97B681B685A697B6910
:1023C0009A4201D8022327E03A68FB68D31A3B609F
:1023D0003A68FB689A42DFD27B681B6818467969C5
:1023E000FFF7E4FC38617B687A69DA603B69002BAF
:1023F00001D1022310E03B681A093B691A447B684B
:102400001A617B681A683B6803F00F035B01303385
:102410001A447B685A61002318461837BD4680BDB0
:1024200090B587B000AF786039607B68DB88013396
:10243000FB60FB689BB2002B03D07B681B69002B01
:1024400001D10423BAE0FB6803F00F03002B40F036
:10245000A6807B681B695A1C7B681A617B68DB68F5
:10246000002B09D17B681B681B891A46FB689A42BE
:1024700000F295800423A1E0FB681B097A681268CA
:102480009278013A1340002B40F089807B681A68EB
:102490007B68DB6810461946FFF7A8FC78617B690A
:1024A000012B01D8022389E07B69B3F1FF3F01D101
:1024B000012383E07B681B685A697B699A4262D872
:1024C0003B68002B01D1042378E07B681A687B68A5
:1024D000DB6810461946FFF78FFE78617B69002B99
:1024E00001D107236AE07B69012B01D1022365E05A
:1024F0007B69B3F1FF3F01D101235FE07B681B687B
:102500001846FFF739FB0346002B01D0012355E0A5
:102510007B681B683033184600214FF40072FFF7C8
:10252000CDFA7B681C687B681B6818467969FFF7E1
:102530003DFC0346E36200233B6115E07B681B68BA
:1025400001221A717B681B681846FFF715FB0346CA
:10255000002B01D0012331E07B681B68DA6A01326D
:10256000DA623B6901333B617B681B689B781A46E2
:102570003B699A42E2D87B681B687A681268D16A24
:102580003A698A1ADA627B687A69DA607B681B6862
:1025900018467969FFF70AFC02467B681A61FB68F6
:1025A0009AB27B68DA807B681A68FB6803F00F03D5
:1025B0005B0130331A447B685A61002318461C378C
:1025C000BD4690BD80B584B000AF78603960786852
:1025D0000021FFF7A7FE0346FB73FB7B002B2DD1E9
:1025E0000023BB607B681A687B681B69104619462C
:1025F000FFF708FB0346FB73FB7B002B00D01DE0BD
:102600007B685B691B78E52B04D07B685B691B7872
:10261000002B08D1BB680133BB60BA683B689A42A3
:1026200000D10BE001E00023BB6078680121FFF7D7
:10263000F7FE0346FB73FB7B002BD3D0FB7B042B05
:1026400001D10723FB73FB7B18461037BD4680BDC5
:1026500080B485B000AF786039603B681B331B786D
:102660001B029AB23B681A331B789BB213439BB28E
:102670009BB2FB607B681B78032B0FD13B68153343
:102680001B781B029AB23B6814331B789BB213432E
:102690009BB29BB21B04FA681343FB60FB681846AD
:1026A0001437BD465DF8047B704700BF80B483B02B
:1026B00000AF786039607B681A333A68D2B21A701A
:1026C0007B681B333A6892B2120A92B2D2B21A7085
:1026D0007B6814333A68120CD2B21A707B681533D7
:1026E0003A68120C92B2120A92B2D2B21A700C3735
:1026F000BD465DF8047B704780B586B000AF78605A
:1027000078680021FFF70EFE0346FB75FB7D002B6A
:1027100001D0FB7D35E07B681A687B681B69104639
:102720001946FFF76FFA0346FB75FB7D002B00D0BF
:1027300026E07B685B693B613B691B78FB73FB7B35
:10274000002B02D10423FB751AE03B690B331B7885
:1027500003F00803002B0AD17B689B69386919468E
:102760000B22FFF7C5F90346002B00D108E078687B
:102770000021FFF755FE0346FB75FB7D002BCAD0F9
:10278000FB7D18461837BD4680BD00BF80B584B0BC
:1027900000AF786078680121FFF714FF0346FB73F0
:1027A000FB7B002B20D17B681A687B681B69104675
:1027B0001946FFF727FA0346FB73FB7B002B13D167
:1027C0007B685B69184600212022FFF777F97B6858
:1027D0005A697B689B69104619460B22FFF750F92E
:1027E0007B681B6801221A71FB7B18461037BD46B7
:1027F00080BD00BF80B588B000AF786039603B68AD
:102800001B68FB6002E0FB680133FB60FB681B7820
:102810002F2BF8D0FB681B785C2BF4D07B689B696E
:10282000BB60B86820210B22FFF748F90023FB7733
:1028300000233B613B697B610823BB617B695A1CB8
:102840007A61FA6813441B78BB77BB7F202B53D97E
:10285000BB7F2F2B50D0BB7F5C2B4DD0BB7F2E2B53
:1028600003D03A69BB699A420FD3BB69082B02D1E6
:10287000BB7F2E2B01D0062373E008233B610B2383
:10288000BB61FB7F9B00FB7735E0BB7F5BB2002B1E
:1028900008DAFB7F43F00303FB77BB7F803B334ABF
:1028A000D35CBB77BB7F32481946FFF749F9034633
:1028B000002B01D0062354E0BB7F402B07D9BB7F00
:1028C0005A2B04D8FB7F43F00203FB770CE0BB7F5D
:1028D000602B09D9BB7F7A2B06D8FB7F43F001031D
:1028E000FB77BB7F203BBB773B695A1C3A61BA68D8
:1028F0001344BA7F1A70A1E7FA687B691A443B68EF
:102900001A60BB7F202B01D8042300E00023BB7793
:102910003B69002B01D1062323E0BB681B78E52B24
:1029200002D1BB6805221A70BB69082B02D1FB7F5C
:102930009B00FB77FB7F03F00303012B03D1BB7FDD
:1029400043F01003BB77FB7F03F00C03042B03D190
:10295000BB7F43F00803BB77BB680B33BA7F1A70A9
:10296000002318462037BD4680BD00BF184100082F
:102970009841000880B584B000AF786039603B684A
:102980001B782F2B03D03B681B785C2B02D13B6854
:1029900001333B607B6800229A603B681B781F2BE9
:1029A00009D878680021FFF7BDFC0346FB737B68FC
:1029B00000225A613FE03B4678681946FFF71AFF4C
:1029C0000346FB73FB7B002B00D034E07868FFF7F5
:1029D00093FE0346FB737B689B69DB7ABB73FB7BCF
:1029E000002B0BD0FB7B042B07D1BB7B03F0040334
:1029F000002B02D10523FB731DE01CE0BB7B03F021
:102A00000403002B00D016E07B685B69BB60BB68E9
:102A10000B331B7803F01003002B02D10523FB734B
:102A200009E07B681B681846B968FFF711FE02468B
:102A30007B689A60BFE7FB7B18461037BD4680BDB8
:102A400080B487B000AF78604FF0FF333B617B68A4
:102A50001B68002B31D07B681B687B6102E07B69BF
:102A600001337B617B691B78202B03D97B691B7841
:102A70003A2BF4D17B691B783A2B1CD17B681B68FD
:102A8000FB60FB685A1CFA601B78303BBB60BB687C
:102A9000092B0ED8FA687B699A420AD1BB68002BD1
:102AA00007D1BB683B617B6901337B617B687A69D5
:102AB0001A603B6902E000233B613B6918461C3702
:102AC000BD465DF8047B704780B582B000AF78608A
:102AD00039607B6800221A717B684FF0FF32DA623E
:102AE00078683968FFF78EF80346002B01D003237E
:102AF00043E07B6893F82F321B029AB27B6893F80D
:102B00002E329BB213439BB21BB21E4A934201D09A
:102B1000022332E07B6893F869301A067B6893F8E9
:102B200068301B0413437A6892F86720120213433B
:102B30007A6892F86620134323F07F43124A934247
:102B400001D1002319E07B6893F885301A067B6871
:102B500093F884301B0413437A6892F8832012029E
:102B600013437A6892F88220134323F07F43064A86
:102B7000934201D1002300E0012318460837BD46E7
:102B800080BD00BF55AAFFFF4641540080B596B0F6
:102B900000AFF860B9601346FB71FB6800221A6051
:102BA000B868FFF74DFFF863FB6B002B01DA0B23CE
:102BB00092E29B4AFB6B52F82330BB63BB6B002B4A
:102BC00001D10C2388E2FB68BA6B1A60BB6B1B78DF
:102BD000002B1AD0BB6B5B781846FDF7B1FC03469F
:102BE00087F8373097F8373003F00103002B0CD10A
:102BF000FB79002B07D097F8373003F00403002B44
:102C000001D00A2368E2002366E2BB6B00221A703F
:102C1000FB6BDAB2BB6B5A70BB6B5B781846FDF787
:102C2000C1FC034687F8373097F8373003F00103CB
:102C3000002B01D003234FE2FB79002B07D097F83C
:102C4000373003F00403002B01D00A2344E20023B1
:102C50003B65B86B396DFFF737FF034687F8573090
:102C600097F85730012B56D100233B642AE03B6C88
:102C70001B0103F5DF733033BA6B13443B633B6BCB
:102C800004331B78002B12D03B6B0B331B781A06D6
:102C90003B6B0A331B781B0413433A6B09321278DF
:102CA000120213433A6B083212781A4300E00022F2
:102CB0003B6C9B0007F158010B4443F8442C3B6CE0
:102CC00001333B643B6C032BD1D900233B643B6C49
:102CD000002B02D03B6C013B3B643B6C9B0007F13B
:102CE0005802134453F8443C3B653B6D002B05D020
:102CF000B86B396DFFF7E8FE034600E0022387F862
:102D0000573097F85730002B05D03B6C01333B64AC
:102D10003B6C032BE1D997F85730032B01D10123EA
:102D2000DAE197F85730002B01D00D23D4E1BB6BCB
:102D300093F83C301B029AB2BB6B93F83B309BB2CA
:102D400013439BB21BB2B3F5007F01D00D23C3E147
:102D5000BB6B93F847301B029AB2BB6B93F84630BB
:102D60009BB213439BB29BB2FB64FB6C002B12D152
:102D7000BB6B93F857301A06BB6B93F856301B04A5
:102D80001343BA6B92F8552012021343BA6B92F8B0
:102D900054201343FB64BB6BFA6C9A61BB6B93F8D2
:102DA0004020BB6BDA70BB6BDB78012B05D0BB6BB3
:102DB000DB78022B01D00D238EE1BB6BDB781A464A
:102DC000FB6C02FB03F3FB64BB6B93F83D20BB6B16
:102DD0009A70BB6B9B78002B08D0BB6B9B781A4614
:102DE000BB6B9B78013B1340002B01D00D2373E19B
:102DF000BB6B93F842301B029AB2BB6B93F8413025
:102E00009BB213439BB29AB2BB6B1A81BB6B1B89FB
:102E100003F00F039BB2002B04D00D235CE100BF35
:102E200040020020BB6B93F844301B029AB2BB6B8C
:102E300093F843309BB213439BB29BB2BB64BB6C11
:102E4000002B12D1BB6B93F853301A06BB6B93F86F
:102E500052301B041343BA6B92F8512012021343F1
:102E6000BA6B92F850201343BB64BB6B93F83F30AE
:102E70001B029AB2BB6B93F83E309BB213439BB2DA
:102E8000FB85FB8D002B01D10D2325E1FA8DFB6C19
:102E90001344BA6B1289120992B21344BB62BA6C22
:102EA000BB6A9A4201D20D2316E1BA6CBB6AD31AEF
:102EB000BA6B9278B3FBF2F37B627B6A002B01D191
:102EC0000D2309E1012387F857307B6A40F6F5723C
:102ED000934202D9022387F857307B6A4FF6F57286
:102EE000934202D9032387F857307B6A9A1CBB6B45
:102EF0005A61BB6B3A6DDA61FA8D3B6D1A44BB6B5C
:102F00001A623A6DBB6A1A44BB6B9A6297F85730E3
:102F1000032B1ED1BB6B1B89002B01D00D23DBE0E3
:102F2000BB6B93F85F301A06BB6B93F85E301B04E3
:102F30001343BA6B92F85D2012021343BA6B92F8F6
:102F40005C201A43BB6B5A62BB6B5B699B007B6462
:102F50001FE0BB6B1B89002B01D10D23BCE0BB6BB9
:102F60001A6AFB6C1A44BB6B5A6297F85730022BF3
:102F700003D1BB6B5B695B000AE0BB6B5A6913460C
:102F80005B0013445A08BB6B5B6903F001031344F5
:102F90007B64BB6B9A697B6C03F2FF135B0A9A42FA
:102FA00001D20D2398E0BB6B4FF0FF321A61BB6B6F
:102FB0001A69BB6BDA60BB6B80225A7197F8573085
:102FC000032B7AD1BB6B93F861301B029AB2BB6BB7
:102FD00093F860309BB213439BB21BB2012B6CD1B0
:102FE0003B6D0133B86B1946FEF70CFE0346002B10
:102FF00063D1BB6B00225A71BB6B93F82F321B025B
:103000009AB2BB6B93F82E329BB213439BB21BB2A6
:10301000334A934251D1BB6B93F833301A06BB6BE2
:1030200093F832301B041343BA6B92F8312012022A
:103030001343BA6B92F8302013432A4A93423CD18F
:10304000BB6B93F817321A06BB6B93F816321B044E
:103050001343BA6B92F8152212021343BA6B92F81B
:1030600014221343204A934227D1BB6B93F81B329F
:103070001A06BB6B93F81A321B041343BA6B92F80F
:10308000192212021343BA6B92F818221A43BB6B2F
:103090001A61BB6B93F81F321A06BB6B93F81E3292
:1030A0001B041343BA6B92F81D2212021343BA6B2E
:1030B00092F81C221A43BB6BDA60BB6B97F857205F
:1030C0001A700A4B1B8801339AB2084B1A80074BBF
:1030D0001A88BB6BDA80002318465837BD4680BD7E
:1030E00055AAFFFF525261417272416144020020B1
:1030F00080B584B000AF78607B68FB60FB68002B14
:103100000FD0FB681B68002B0BD0FB681B681B787B
:10311000002B06D0FB681B68DA88FB689B889A4204
:1031200001D009230DE0FB681B685B781846FDF7AA
:1031300007FA034603F00103002B01D0032300E04C
:10314000002318461037BD4680BD00BF80B588B04B
:1031500000AFF860B9601346FB71BB683B6107F1D3
:1031600010031846FFF76CFCF861FB69002B01DACD
:103170000B2329E0164AFB6952F82330BB61BB6977
:10318000002B02D0BB6900221A70FB68002B02D012
:10319000FB6800221A70FA680D49FB6941F8232088
:1031A000FB68002B02D0FB79012B01D000230BE040
:1031B00007F10C0207F10803104619460022FFF739
:1031C000E5FC0346FB75FB7D18462037BD4680BDF8
:1031D0004002002080B592B000AFF860B96013469D
:1031E000FB71FB68002B01D1092332E1FB6800224F
:1031F0001A60FB7903F01F03FB71FB7923F00103D5
:10320000DBB207F11C0107F10802084611461A4615
:10321000FFF7BCFC034687F8473097F84730002B90
:1032200040F0158107F110037B63BB6807F11C02B6
:1032300010461946FFF79EFB034687F847303B6B65
:103240003B6497F84730002B05D13B6C002B02D133
:10325000062387F84730FB7903F01C03002B00F0AE
:10326000908097F84730002B12D097F84730042B06
:1032700007D107F11C031846FFF788FA034687F8C1
:103280004730FB7943F00803FB713B6B3B6412E072
:103290003B6C0B331B7803F01103002B03D0072387
:1032A00087F8473007E0FB7903F00403002B02D0D6
:1032B000082387F8473097F84730002B60D1FB7917
:1032C00003F00803002B5BD0FDF722FAF8633B6C98
:1032D0000E33FA6BD2B21A703B6C0F33FA6B92B2A8
:1032E000120A92B2D2B21A703B6C1033FA6B120C03
:1032F000D2B21A703B6C1133FA6B120ED2B21A7042
:103300003B6C0B3300221A703B6C1C3300221A708A
:103310003B6C1D3300221A703B6C1E3300221A7066
:103320003B6C1F3300221A70FB691846396CFFF79B
:103330008FF9B863386C0021FFF7B8F9FB690122F7
:103340001A71BB6B002B1BD0FB69DB6AFB63FB694B
:103350001846B96BFEF7FEFE034687F8473097F82C
:103360004730002B0CD1FB69BA6B013ADA60FB697C
:103370001846F96BFEF746FC034687F847301EE017
:103380001DE097F84730002B19D13B6C0B331B78AD
:1033900003F01003002B03D0042387F847300EE01E
:1033A000FB7903F00203002B09D03B6C0B331B7835
:1033B00003F00103002B02D0072387F8473097F86A
:1033C0004730002B0FD1FB7903F00803002B03D00B
:1033D000FB7943F02003FB71FB69DA6AFB68DA6171
:1033E000FB683A6C1A6297F84730002B2FD1FB68C4
:1033F000FA799A71FB680022DA71FB691846396C18
:10340000FFF726F90246FB681A613B6C1F331B78F5
:103410001A063B6C1E331B781B0413433A6C1D3297
:103420001278120213433A6C1C3212781A43FB686A
:10343000DA60FB6800229A60FB6800229A61FA69F0
:10344000FB681A60FB681B68DA88FB689A8097F84B
:10345000473018464837BD4680BD00BF80B58AB0AA
:1034600000AFF860B9607A603B60BB68BB613B68E5
:1034700000221A60F868FFF73BFE0346FB75FB7DF0
:10348000002B01D0FB7D54E1FB68DB79002B02D0DF
:10349000FB68DB794DE1FB689B7903F00203002BAD
:1034A00001D1072345E1FB689A687B681A44FB68F1
:1034B0009B689A4201D200237B6024E1FB689B68F1
:1034C000C3F30803002B40F0E980FB689B685B0AAC
:1034D000DAB2FB681B689B78013BDBB21340BB751B
:1034E000BB7D002B39D1FB689B68002B0DD1FB689D
:1034F0001B697B627B6A002B10D1FB681B68184636
:103500000021FEF779FE786208E0FB681A68FB6824
:103510005B6910461946FEF76FFE78627B6A002BE6
:1035200000D1F4E07B6A012B04D1FB680222DA713E
:103530000223FEE07B6AB3F1FF3F04D1FB68012266
:10354000DA710123F5E0FB687A6A5A61FB681B694E
:10355000002B02D1FB687A6A1A61FB689B7903F041
:103560004003002B1CD0FB681B685978FB6803F1F3
:103570002402FB689B69084611461A460123FDF7A1
:1035800085F80346002B04D0FB680122DA71012381
:10359000CFE0FB689B7923F04003DAB2FB689A71B5
:1035A000FB681A68FB685B6910461946FEF7FEFB6C
:1035B00038613B69002B04D1FB680222DA710223D7
:1035C000B7E0BB7D3A6913443B617B685B0AFB61F2
:1035D000FB69002B41D0BA7DFB691344FA6812687D
:1035E0009278934206D9FB681B689B781A46BB7D8C
:1035F000D31AFB61FB681B685B781846B9693A69A6
:10360000FB69FDF743F80346002B04D0FB68012259
:10361000DA7101238DE0FB689A693B69D21AFB6974
:103620009A4216D2FB6803F12401FB689A693B6950
:10363000D31A5B02BA691344084619464FF4007264
:10364000FEF71EFAFB689B7923F04003DAB2FB68B1
:103650009A71FB695B023B6241E0FB689A693B69D6
:103660009A4218D0FB689A68FB68DB689A4212D2CB
:10367000FB681B685A78FB682433104619463A6980
:103680000123FCF7C1FF0346002B04D0FB68012295
:10369000DA7101234DE0FB683A699A61FB689B6827
:1036A000C3F30803C3F500733B623A6A7B689A422E
:1036B00001D97B683B62FB689B68C3F30803203336
:1036C000FA68134404331846B9693A6AFEF7D8F920
:1036D000FB689B7943F04003DAB2FB689A71BA69E0
:1036E0003B6A1344BB61FB689A683B6A1A44FB68F7
:1036F0009A603B681A683B6A1A443B681A607A68A9
:103700003B6AD31A7B607B68002B7FF4D7AEFB68E3
:103710009A68FB68DB689A4203D9FB689A68FB6881
:10372000DA60FB689B7943F02003DAB2FB689A7198
:10373000002318462837BD4680BD00BF80B586B03F
:1037400000AF78607868FFF7D3FC0346FB75FB7D1C
:10375000002B40F099807B689B7903F02003002BBD
:1037600000F092807B689B7903F04003002B19D016
:103770007B681B6859787B6803F124027B689B692E
:10378000084611461A460123FCF780FF0346002B2A
:1037900001D0012379E07B689B7923F04003DAB202
:1037A0007B689A717B681A687B68DB6910461946EA
:1037B000FEF728FA0346FB75FB7D002B64D17B687E
:1037C0001B6A3B613B690B333A690B32127842F05A
:1037D0002002D2B21A703B691C337A68D268D2B226
:1037E0001A703B691D337A68D26892B2120A92B29B
:1037F000D2B21A703B691E337A68D268120CD2B208
:103800001A703B691F337A68D268120ED2B21A70EE
:103810007B681B6938691946FEF748FFFCF778FF9B
:10382000F8603B691633FA68D2B21A703B691733F5
:10383000FA6892B2120A92B2D2B21A703B69183385
:10384000FA68120CD2B21A703B691933FA68120E78
:10385000D2B21A703B69123300221A703B691333DB
:1038600000221A707B689B7923F02003DAB27B6810
:103870009A717B681B6801221A717B681B68184665
:10388000FEF7EEF90346FB75FB7D18461837BD467B
:1038900080BD00BF80B584B000AF78607868FFF766
:1038A0004DFF0346FB73FB7B002B0AD17868FFF7C3
:1038B0001FFC0346FB73FB7B002B02D17B680022BD
:1038C0001A60FB7B18461037BD4680BD80B588B0B6
:1038D00000AF786039607868FFF70AFC0346FB7533
:1038E000FB7D002B01D0FB7D23E17B68DB79002B86
:1038F00002D07B68DB791CE17B68DA683B689A421E
:1039000008D27B689B7903F00203002B02D17B680D
:10391000DB683B607B689B683B610023BB617B6825
:10392000BA699A603B68002B00F0AD807B681B6829
:103930009B785B02FB603B69002B1BD03B685A1EE7
:10394000FB68B2FBF3F23B69591EFB68B1FBF3F372
:103950009A420FD33B695A1EFB685B421A407B6850
:103960009A607B689B683A68D31A3B607B685B69A6
:10397000FB6123E07B681B69FB61FB69002B1AD1AB
:103980007B681B6818460021FEF736FCF861FB696E
:10399000012B04D17B680222DA710223C9E0FB69A2
:1039A000B3F1FF3F04D17B680122DA710123C0E04B
:1039B0007B68FA691A617B68FA695A61FB69002BB6
:1039C00061D03DE07B689B7903F00203002B0CD0B3
:1039D0007B681B681846F969FEF70EFCF861FB6905
:1039E000002B09D1FB683B602EE07B681B68184602
:1039F000F969FEF7FBF9F861FB69B3F1FF3F04D108
:103A00007B680122DA71012393E0FB69012B05D960
:103A10007B681B685A69FB699A4204D87B6802225A
:103A2000DA71022385E07B68FA695A617B689A68DB
:103A3000FB681A447B689A603A68FB68D31A3B605B
:103A40003A68FB689A42BDD87B689A683B681A441A
:103A50007B689A603B68C3F30803002B13D07B6834
:103A60001B681846F969FEF7A1F9B861BB69002B1C
:103A700004D17B680222DA7102235AE03B685B0AB8
:103A8000BA691344BB617B689B68C3F30803002BCE
:103A90003DD07B689A69BB699A4238D07B689B7934
:103AA00003F04003002B1CD07B681B6859787B68AF
:103AB00003F124027B689B69084611461A460123DC
:103AC000FCF7E4FD0346002B04D07B680122DA7189
:103AD00001232EE07B689B7923F04003DAB27B68F8
:103AE0009A717B681B685A787B68243310461946A4
:103AF000BA690123FCF788FD0346002B04D07B68DC
:103B00000122DA71012314E07B68BA699A617B684B
:103B10009A687B68DB689A420AD97B689A687B68F6
:103B2000DA607B689B7943F02003DAB27B689A7194
:103B3000FB7D18462037BD4680BD00BF80B58EB0E6
:103B400000AFF860B9607A6007F10C037868194635
:103B50000022FFF71BF8034687F837307B681B68A5
:103B6000FB6197F83730002B40F0A680FB691A699B
:103B7000FB695B69023B9A4204D8FB691A69BB681E
:103B80001A6099E0FB691B78FB7600233B63FB7EA0
:103B9000012B25D10223FB62F869F96AFEF726F9A9
:103BA00078617B69B3F1FF3F03D1012387F8373098
:103BB00015E07B69012B03D1022387F837300EE033
:103BC0007B69002B02D13B6B01333B63FB6A013302
:103BD000FB62FB695B69FA6A9A42DDD35FE05EE0F3
:103BE000FB695B69FB62FB691B6ABB6200237B624A
:103BF00000233B627B6A002B14D1BB6A5A1CBA6259
:103C0000F8691946FDF7FEFF034687F8373097F845
:103C10003730002B00D042E0FB6930333B624FF479
:103C200000737B62FB7E022B15D13B6A01331B784C
:103C30001B029AB23B6A1B789BB213439BB2002BC8
:103C400002D13B6B01333B633B6A02333B627B6ACD
:103C5000023B7B621DE03B6A03331B781A063B6A1A
:103C600002331B781B0413433A6A013212781202A2
:103C700013433A6A1278134323F07043002B02D1A6
:103C80003B6B01333B633B6A04333B627B6A043B1F
:103C90007B62FB6A013BFB62FB6A002BAAD1FB69DA
:103CA0003A6B1A61FB695B7943F00103DAB2FB6995
:103CB0005A71BB683A6B1A6097F837301846383734
:103CC000BD4680BD80B584B000AF78600B46FB7008
:103CD000FB780A2B03D178680D21FFF7F3FF7B688F
:103CE0005B68FB60FB68002B24DBFB685A1CFA60F6
:103CF0007A681344FA781A73FB683C2B12DD7B68F0
:103D000018687B6803F10C01FA6807F10803FFF7F4
:103D1000A5FBFA68BB689A4201D1002301E04FF08D
:103D2000FF33FB607B68FA685A607B689B685A1CAB
:103D30007B689A601037BD4680BD00BF90B597B0D4
:103D400000AF03463960FB713B68FB6000233B61B9
:103D50003B697B6107F10C02FB7910461946FFF7BE
:103D6000B1FF3B69002B17DBF9683B691C4607F183
:103D70000C0303F10C0207F1080308461146224622
:103D8000FFF76CFB0346002B06D13B691A46BB6864
:103D90009A4201D17B6901E04FF0FF3318465C374E
:103DA000BD4690BD90B597B000AF786039603B6874
:103DB000FB6000233B613B697B6109E07B685A1C27
:103DC0007A601B7807F10C0210461946FFF77AFF5C
:103DD0007B681B78002BF1D13B69002B17DBF9685E
:103DE0003B691C4607F10C0303F10C0207F10803C1
:103DF000084611462246FFF731FB0346002B06D149
:103E00003B691A46BB689A4201D17B6901E04FF0D9
:103E1000FF3318465C37BD4690BD00BF80B487B005
:103E200000AF786000237B6100233B610F23FB60C0
:103E30007B68DB78002B3AD0274BDB68DB4303F44D
:103E4000E0631B0A7B617B69C3F104033B617B690F
:103E5000FA6822FA03F3FB607B685B781A463B69D9
:103E600002FA03F37B617B689B781A46FB68134078
:103E70007A6913437B617B691B017B61174A7B680D
:103E80001B787969C9B213440A4683F80023134AA0
:103E90007B681B785B09DBB218467B681B7803F0F4
:103EA0001F03012101FA03F342F820300FE00B4910
:103EB0007B681B785B09DBB218467B681B7803F0D4
:103EC0001F0301229A4000F1200341F823201C37F0
:103ED000BD465DF8047B704700ED00E000E100E0C6
:103EE00080B500AF7C200121FCF7FAFE0A4BC0220E
:103EF0001A80094B1022DA70074B03229A70074888
:103F00000549FCF74DFC044B4FF401521A8004485C
:103F10000149FCF745FC80BD48020020001001402B
:103F20000014014080B485B000AF78603960002390
:103F3000FB817B681B88FB81FB8903F44153FB8178
:103F40003B681A883B685B8813439AB23B689B883E
:103F500013439AB23B68DB8813439AB23B681B89D0
:103F600013439AB23B685B8913439AB23B689B89BF
:103F700013439AB23B68DB8913439AB2FB8913431C
:103F8000FB817B68FA891A807B689B8B9BB223F448
:103F900000639AB27B689A833B681A8A7B681A82AC
:103FA0001437BD465DF8047B704700BF80B483B012
:103FB00000AF78600B46FB70FB78002B08D07B6865
:103FC0001B889BB243F040039AB27B681A8007E0DB
:103FD0007B681B889BB223F040039AB27B681A80EF
:103FE0000C37BD465DF8047B704700BF80B483B0DA
:103FF00000AF78600B467B807B687A889A810C37AB
:10400000BD465DF8047B704780B483B000AF786034
:104010007B689B899BB218460C37BD465DF8047BD4
:10402000704700BF80B485B000AF78600B467B80DE
:104030000023FB737B681B899AB27B8813409BB279
:10404000002B02D00123FB7301E00023FB73FB7BF9
:1040500018461437BD465DF8047B704780B400AF46
:10406000064B1B68002B04D0044B1B68013B034A22
:104070001360BD465DF8047B704700BF60020020FE
:1040800080B582B000AF78600B467B8000BF786857
:104090008021FCF783FE0346002BF8D07B887868EC
:1040A0001946FCF759FE0837BD4680BD80B582B081
:1040B00000AF0B4840F22551FCF78CFE0346002B65
:1040C0000AD00748FCF75AFE0346FB71FB799BB206
:1040D00003481946FFF7D4FF0837BD4680BD00BF2F
:1040E00000380140303A2F5052552E747874000039
:1040F000464154465320456E206D6F646F205350E7
:104100004900000050525545424100003132330011
:1041100000000000303A0000808182838485868719
:1041200088898A8B8C8D8E8F909192939495969797
:104130009899AD9B8C9DAE9FA021A2A3A4A5A6A7F4
:10414000A8A9AAABACADAEAFB0B1B2B3B4B5B6B777
:10415000B8B9BABBBCBDBEBFC0C1C2C3C4C5C6C767
:10416000C8C9CACBCCCDCECFD0D1D2D3D4D5D6D757
:10417000D8D9DADBDCDDDEDFC0C1C2C3C4C5C6C747
:10418000C8C9CACBCCCDCECFD0D1D2D3D4D5D6F717
:10419000D8D9DADBDCDDDE9F222A2B2C3A3B3C3DF2
:0841A0003E3F5B5D7C7F0000E7
:0441A8000100000012
:0400000508000000EF
:00000001FF
